{
	"contracts/FundMe.sol": {
		"FundMe": {
			"abi": [
				{
					"inputs": [],
					"stateMutability": "nonpayable",
					"type": "constructor"
				},
				{
					"inputs": [],
					"name": "NotOwner",
					"type": "error"
				},
				{
					"inputs": [
						{
							"internalType": "address",
							"name": "",
							"type": "address"
						}
					],
					"name": "addressToAmountFunded",
					"outputs": [
						{
							"internalType": "uint256",
							"name": "",
							"type": "uint256"
						}
					],
					"stateMutability": "view",
					"type": "function"
				},
				{
					"inputs": [],
					"name": "fund",
					"outputs": [],
					"stateMutability": "payable",
					"type": "function"
				},
				{
					"inputs": [
						{
							"internalType": "uint256",
							"name": "",
							"type": "uint256"
						}
					],
					"name": "funders",
					"outputs": [
						{
							"internalType": "address",
							"name": "",
							"type": "address"
						}
					],
					"stateMutability": "view",
					"type": "function"
				},
				{
					"inputs": [],
					"name": "i_owner",
					"outputs": [
						{
							"internalType": "address",
							"name": "",
							"type": "address"
						}
					],
					"stateMutability": "view",
					"type": "function"
				},
				{
					"inputs": [],
					"name": "withdraw",
					"outputs": [],
					"stateMutability": "nonpayable",
					"type": "function"
				}
			],
			"devdoc": {
				"kind": "dev",
				"methods": {},
				"version": 1
			},
			"evm": {
				"assembly": "    /* \"contracts/FundMe.sol\":108:1235  contract FundMe {... */\n  mstore(0x40, 0xa0)\n    /* \"contracts/FundMe.sol\":343:394  constructor() {... */\n  callvalue\n  dup1\n  iszero\n  tag_1\n  jumpi\n  0x00\n  dup1\n  revert\ntag_1:\n  pop\n    /* \"contracts/FundMe.sol\":377:387  msg.sender */\n  caller\n    /* \"contracts/FundMe.sol\":367:387  i_owner = msg.sender */\n  0xffffffffffffffffffffffffffffffffffffffff\n  and\n  0x80\n  dup2\n  0xffffffffffffffffffffffffffffffffffffffff\n  and\n  dup2\n  mstore\n  pop\n  pop\n    /* \"contracts/FundMe.sol\":108:1235  contract FundMe {... */\n  mload(0x80)\n  codecopy(0x00, dataOffset(sub_0), dataSize(sub_0))\n  0x00\n  assignImmutable(\"0xeafa31dc210956fc0884ec5660eba9405197797219cbbda41b6aaf7118c651d8\")\n  return(0x00, dataSize(sub_0))\nstop\n\nsub_0: assembly {\n        /* \"contracts/FundMe.sol\":108:1235  contract FundMe {... */\n      mstore(0x40, 0x80)\n      jumpi(tag_1, lt(calldatasize, 0x04))\n      shr(0xe0, calldataload(0x00))\n      dup1\n      0x3ccfd60b\n      eq\n      tag_2\n      jumpi\n      dup1\n      0x3e47d6f3\n      eq\n      tag_3\n      jumpi\n      dup1\n      0xb60d4288\n      eq\n      tag_4\n      jumpi\n      dup1\n      0xdba6335f\n      eq\n      tag_5\n      jumpi\n      dup1\n      0xdc0d3dff\n      eq\n      tag_6\n      jumpi\n    tag_1:\n      0x00\n      dup1\n      revert\n        /* \"contracts/FundMe.sol\":637:1046  function withdraw() public onlyOwner {... */\n    tag_2:\n      callvalue\n      dup1\n      iszero\n      tag_7\n      jumpi\n      0x00\n      dup1\n      revert\n    tag_7:\n      pop\n      tag_8\n      tag_9\n      jump\t// in\n    tag_8:\n      stop\n        /* \"contracts/FundMe.sol\":241:297  mapping(address => uint256) public addressToAmountFunded */\n    tag_3:\n      callvalue\n      dup1\n      iszero\n      tag_10\n      jumpi\n      0x00\n      dup1\n      revert\n    tag_10:\n      pop\n      tag_11\n      0x04\n      dup1\n      calldatasize\n      sub\n      dup2\n      add\n      swap1\n      tag_12\n      swap2\n      swap1\n      tag_13\n      jump\t// in\n    tag_12:\n      tag_14\n      jump\t// in\n    tag_11:\n      mload(0x40)\n      tag_15\n      swap2\n      swap1\n      tag_16\n      jump\t// in\n    tag_15:\n      mload(0x40)\n      dup1\n      swap2\n      sub\n      swap1\n      return\n        /* \"contracts/FundMe.sol\":400:631  function fund() public payable {... */\n    tag_4:\n      tag_17\n      tag_18\n      jump\t// in\n    tag_17:\n      stop\n        /* \"contracts/FundMe.sol\":304:336  address public immutable i_owner */\n    tag_5:\n      callvalue\n      dup1\n      iszero\n      tag_19\n      jumpi\n      0x00\n      dup1\n      revert\n    tag_19:\n      pop\n      tag_20\n      tag_21\n      jump\t// in\n    tag_20:\n      mload(0x40)\n      tag_22\n      swap2\n      swap1\n      tag_23\n      jump\t// in\n    tag_22:\n      mload(0x40)\n      dup1\n      swap2\n      sub\n      swap1\n      return\n        /* \"contracts/FundMe.sol\":211:235  address[] public funders */\n    tag_6:\n      callvalue\n      dup1\n      iszero\n      tag_24\n      jumpi\n      0x00\n      dup1\n      revert\n    tag_24:\n      pop\n      tag_25\n      0x04\n      dup1\n      calldatasize\n      sub\n      dup2\n      add\n      swap1\n      tag_26\n      swap2\n      swap1\n      tag_27\n      jump\t// in\n    tag_26:\n      tag_28\n      jump\t// in\n    tag_25:\n      mload(0x40)\n      tag_29\n      swap2\n      swap1\n      tag_23\n      jump\t// in\n    tag_29:\n      mload(0x40)\n      dup1\n      swap2\n      sub\n      swap1\n      return\n        /* \"contracts/FundMe.sol\":637:1046  function withdraw() public onlyOwner {... */\n    tag_9:\n        /* \"contracts/FundMe.sol\":1164:1171  i_owner */\n      immutable(\"0xeafa31dc210956fc0884ec5660eba9405197797219cbbda41b6aaf7118c651d8\")\n        /* \"contracts/FundMe.sol\":1150:1171  msg.sender != i_owner */\n      0xffffffffffffffffffffffffffffffffffffffff\n      and\n        /* \"contracts/FundMe.sol\":1150:1160  msg.sender */\n      caller\n        /* \"contracts/FundMe.sol\":1150:1171  msg.sender != i_owner */\n      0xffffffffffffffffffffffffffffffffffffffff\n      and\n      eq\n        /* \"contracts/FundMe.sol\":1146:1215  if (msg.sender != i_owner) {... */\n      tag_31\n      jumpi\n        /* \"contracts/FundMe.sol\":1194:1204  NotOwner() */\n      mload(0x40)\n      0x30cd747100000000000000000000000000000000000000000000000000000000\n      dup2\n      mstore\n      0x04\n      add\n      mload(0x40)\n      dup1\n      swap2\n      sub\n      swap1\n      revert\n        /* \"contracts/FundMe.sol\":1146:1215  if (msg.sender != i_owner) {... */\n    tag_31:\n        /* \"contracts/FundMe.sol\":689:708  uint256 funderIndex */\n      0x00\n        /* \"contracts/FundMe.sol\":684:868  for (uint256 funderIndex = 0; funderIndex < funders.length; funderIndex++) {... */\n    tag_33:\n        /* \"contracts/FundMe.sol\":728:735  funders */\n      0x00\n        /* \"contracts/FundMe.sol\":728:742  funders.length */\n      dup1\n      sload\n      swap1\n      pop\n        /* \"contracts/FundMe.sol\":714:725  funderIndex */\n      dup2\n        /* \"contracts/FundMe.sol\":714:742  funderIndex < funders.length */\n      lt\n        /* \"contracts/FundMe.sol\":684:868  for (uint256 funderIndex = 0; funderIndex < funders.length; funderIndex++) {... */\n      iszero\n      tag_34\n      jumpi\n        /* \"contracts/FundMe.sol\":773:787  address funder */\n      0x00\n        /* \"contracts/FundMe.sol\":790:797  funders */\n      dup1\n        /* \"contracts/FundMe.sol\":798:809  funderIndex */\n      dup3\n        /* \"contracts/FundMe.sol\":790:810  funders[funderIndex] */\n      dup2\n      sload\n      dup2\n      lt\n      tag_36\n      jumpi\n      tag_37\n      tag_38\n      jump\t// in\n    tag_37:\n    tag_36:\n      swap1\n      0x00\n      mstore\n      keccak256(0x00, 0x20)\n      add\n      0x00\n      swap1\n      sload\n      swap1\n      0x0100\n      exp\n      swap1\n      div\n      0xffffffffffffffffffffffffffffffffffffffff\n      and\n        /* \"contracts/FundMe.sol\":773:810  address funder = funders[funderIndex] */\n      swap1\n      pop\n        /* \"contracts/FundMe.sol\":856:857  0 */\n      0x00\n        /* \"contracts/FundMe.sol\":824:845  addressToAmountFunded */\n      0x01\n        /* \"contracts/FundMe.sol\":824:853  addressToAmountFunded[funder] */\n      0x00\n        /* \"contracts/FundMe.sol\":846:852  funder */\n      dup4\n        /* \"contracts/FundMe.sol\":824:853  addressToAmountFunded[funder] */\n      0xffffffffffffffffffffffffffffffffffffffff\n      and\n      0xffffffffffffffffffffffffffffffffffffffff\n      and\n      dup2\n      mstore\n      0x20\n      add\n      swap1\n      dup2\n      mstore\n      0x20\n      add\n      0x00\n      keccak256\n        /* \"contracts/FundMe.sol\":824:857  addressToAmountFunded[funder] = 0 */\n      dup2\n      swap1\n      sstore\n      pop\n        /* \"contracts/FundMe.sol\":759:868  {... */\n      pop\n        /* \"contracts/FundMe.sol\":744:757  funderIndex++ */\n      dup1\n      dup1\n      0x01\n      add\n      swap2\n      pop\n      pop\n        /* \"contracts/FundMe.sol\":684:868  for (uint256 funderIndex = 0; funderIndex < funders.length; funderIndex++) {... */\n      jump(tag_33)\n    tag_34:\n      pop\n        /* \"contracts/FundMe.sol\":901:902  0 */\n      0x00\n        /* \"contracts/FundMe.sol\":887:903  new address[](0) */\n      0xffffffffffffffff\n      dup2\n      gt\n      iszero\n      tag_40\n      jumpi\n      tag_41\n      tag_42\n      jump\t// in\n    tag_41:\n    tag_40:\n      mload(0x40)\n      swap1\n      dup1\n      dup3\n      mstore\n      dup1\n      0x20\n      mul\n      0x20\n      add\n      dup3\n      add\n      0x40\n      mstore\n      dup1\n      iszero\n      tag_43\n      jumpi\n      dup2\n      0x20\n      add\n      0x20\n      dup3\n      mul\n      dup1\n      calldatasize\n      dup4\n      calldatacopy\n      dup1\n      dup3\n      add\n      swap2\n      pop\n      pop\n      swap1\n      pop\n    tag_43:\n      pop\n        /* \"contracts/FundMe.sol\":877:884  funders */\n      0x00\n        /* \"contracts/FundMe.sol\":877:903  funders = new address[](0) */\n      swap1\n      dup1\n      mload\n      swap1\n      0x20\n      add\n      swap1\n      tag_44\n      swap3\n      swap2\n      swap1\n      tag_45\n      jump\t// in\n    tag_44:\n      pop\n        /* \"contracts/FundMe.sol\":914:930  bool callSuccess */\n      0x00\n        /* \"contracts/FundMe.sol\":944:954  msg.sender */\n      caller\n        /* \"contracts/FundMe.sol\":936:960  payable(msg.sender).call */\n      0xffffffffffffffffffffffffffffffffffffffff\n      and\n        /* \"contracts/FundMe.sol\":968:989  address(this).balance */\n      selfbalance\n        /* \"contracts/FundMe.sol\":936:994  payable(msg.sender).call{value: address(this).balance}(\"\") */\n      mload(0x40)\n      tag_46\n      swap1\n      tag_47\n      jump\t// in\n    tag_46:\n      0x00\n      mload(0x40)\n      dup1\n      dup4\n      sub\n      dup2\n      dup6\n      dup8\n      gas\n      call\n      swap3\n      pop\n      pop\n      pop\n      returndatasize\n      dup1\n      0x00\n      dup2\n      eq\n      tag_50\n      jumpi\n      mload(0x40)\n      swap2\n      pop\n      and(add(returndatasize, 0x3f), not(0x1f))\n      dup3\n      add\n      0x40\n      mstore\n      returndatasize\n      dup3\n      mstore\n      returndatasize\n      0x00\n      0x20\n      dup5\n      add\n      returndatacopy\n      jump(tag_49)\n    tag_50:\n      0x60\n      swap2\n      pop\n    tag_49:\n      pop\n        /* \"contracts/FundMe.sol\":913:994  (bool callSuccess, ) = payable(msg.sender).call{value: address(this).balance}(\"\") */\n      pop\n      swap1\n      pop\n        /* \"contracts/FundMe.sol\":1012:1023  callSuccess */\n      dup1\n        /* \"contracts/FundMe.sol\":1004:1039  require(callSuccess, \"Call failed\") */\n      tag_51\n      jumpi\n      mload(0x40)\n      0x08c379a000000000000000000000000000000000000000000000000000000000\n      dup2\n      mstore\n      0x04\n      add\n      tag_52\n      swap1\n      tag_53\n      jump\t// in\n    tag_52:\n      mload(0x40)\n      dup1\n      swap2\n      sub\n      swap1\n      revert\n    tag_51:\n        /* \"contracts/FundMe.sol\":674:1046  {... */\n      pop\n        /* \"contracts/FundMe.sol\":637:1046  function withdraw() public onlyOwner {... */\n      jump\t// out\n        /* \"contracts/FundMe.sol\":241:297  mapping(address => uint256) public addressToAmountFunded */\n    tag_14:\n      mstore(0x20, 0x01)\n      dup1\n      0x00\n      mstore\n      keccak256(0x00, 0x40)\n      0x00\n      swap2\n      pop\n      swap1\n      pop\n      sload\n      dup2\n      jump\t// out\n        /* \"contracts/FundMe.sol\":400:631  function fund() public payable {... */\n    tag_18:\n        /* \"contracts/FundMe.sol\":197:205  1 * 1e18 */\n      0x0de0b6b3a7640000\n        /* \"contracts/FundMe.sol\":449:478  msg.value.getConversionRate() */\n      tag_55\n        /* \"contracts/FundMe.sol\":449:458  msg.value */\n      callvalue\n        /* \"contracts/FundMe.sol\":449:476  msg.value.getConversionRate */\n      tag_56\n        /* \"contracts/FundMe.sol\":449:478  msg.value.getConversionRate() */\n      jump\t// in\n    tag_55:\n        /* \"contracts/FundMe.sol\":449:489  msg.value.getConversionRate() >= MIN_USD */\n      lt\n      iszero\n        /* \"contracts/FundMe.sol\":441:512  require(msg.value.getConversionRate() >= MIN_USD, \"Didn't send enough\") */\n      tag_57\n      jumpi\n      mload(0x40)\n      0x08c379a000000000000000000000000000000000000000000000000000000000\n      dup2\n      mstore\n      0x04\n      add\n      tag_58\n      swap1\n      tag_59\n      jump\t// in\n    tag_58:\n      mload(0x40)\n      dup1\n      swap2\n      sub\n      swap1\n      revert\n    tag_57:\n        /* \"contracts/FundMe.sol\":544:551  funders */\n      0x00\n        /* \"contracts/FundMe.sol\":557:567  msg.sender */\n      caller\n        /* \"contracts/FundMe.sol\":544:568  funders.push(msg.sender) */\n      swap1\n      dup1\n      0x01\n      dup2\n      sload\n      add\n      dup1\n      dup3\n      sstore\n      dup1\n      swap2\n      pop\n      pop\n      0x01\n      swap1\n      sub\n      swap1\n      0x00\n      mstore\n      keccak256(0x00, 0x20)\n      add\n      0x00\n      swap1\n      swap2\n      swap1\n      swap2\n      swap1\n      swap2\n      0x0100\n      exp\n      dup2\n      sload\n      dup2\n      0xffffffffffffffffffffffffffffffffffffffff\n      mul\n      not\n      and\n      swap1\n      dup4\n      0xffffffffffffffffffffffffffffffffffffffff\n      and\n      mul\n      or\n      swap1\n      sstore\n      pop\n        /* \"contracts/FundMe.sol\":615:624  msg.value */\n      callvalue\n        /* \"contracts/FundMe.sol\":578:599  addressToAmountFunded */\n      0x01\n        /* \"contracts/FundMe.sol\":578:611  addressToAmountFunded[msg.sender] */\n      0x00\n        /* \"contracts/FundMe.sol\":600:610  msg.sender */\n      caller\n        /* \"contracts/FundMe.sol\":578:611  addressToAmountFunded[msg.sender] */\n      0xffffffffffffffffffffffffffffffffffffffff\n      and\n      0xffffffffffffffffffffffffffffffffffffffff\n      and\n      dup2\n      mstore\n      0x20\n      add\n      swap1\n      dup2\n      mstore\n      0x20\n      add\n      0x00\n      keccak256\n      0x00\n        /* \"contracts/FundMe.sol\":578:624  addressToAmountFunded[msg.sender] += msg.value */\n      dup3\n      dup3\n      sload\n      tag_61\n      swap2\n      swap1\n      tag_62\n      jump\t// in\n    tag_61:\n      swap3\n      pop\n      pop\n      dup2\n      swap1\n      sstore\n      pop\n        /* \"contracts/FundMe.sol\":400:631  function fund() public payable {... */\n      jump\t// out\n        /* \"contracts/FundMe.sol\":304:336  address public immutable i_owner */\n    tag_21:\n      immutable(\"0xeafa31dc210956fc0884ec5660eba9405197797219cbbda41b6aaf7118c651d8\")\n      dup2\n      jump\t// out\n        /* \"contracts/FundMe.sol\":211:235  address[] public funders */\n    tag_28:\n      0x00\n      dup2\n      dup2\n      sload\n      dup2\n      lt\n      tag_63\n      jumpi\n      0x00\n      dup1\n      revert\n    tag_63:\n      swap1\n      0x00\n      mstore\n      keccak256(0x00, 0x20)\n      add\n      0x00\n      swap2\n      pop\n      sload\n      swap1\n      0x0100\n      exp\n      swap1\n      div\n      0xffffffffffffffffffffffffffffffffffffffff\n      and\n      dup2\n      jump\t// out\n        /* \"contracts/PriceConvertor.sol\":682:901  function getConversionRate(uint256 ethAmount) internal view returns (uint256) {... */\n    tag_56:\n        /* \"contracts/PriceConvertor.sol\":751:758  uint256 */\n      0x00\n        /* \"contracts/PriceConvertor.sol\":770:786  uint256 ethPrice */\n      dup1\n        /* \"contracts/PriceConvertor.sol\":789:799  getPrice() */\n      tag_66\n        /* \"contracts/PriceConvertor.sol\":789:797  getPrice */\n      tag_67\n        /* \"contracts/PriceConvertor.sol\":789:799  getPrice() */\n      jump\t// in\n    tag_66:\n        /* \"contracts/PriceConvertor.sol\":770:799  uint256 ethPrice = getPrice() */\n      swap1\n      pop\n        /* \"contracts/PriceConvertor.sol\":809:831  uint256 ethAmountInUsd */\n      0x00\n        /* \"contracts/PriceConvertor.sol\":859:863  1e18 */\n      0x0de0b6b3a7640000\n        /* \"contracts/PriceConvertor.sol\":846:855  ethAmount */\n      dup5\n        /* \"contracts/PriceConvertor.sol\":835:843  ethPrice */\n      dup4\n        /* \"contracts/PriceConvertor.sol\":835:855  ethPrice * ethAmount */\n      tag_68\n      swap2\n      swap1\n      tag_69\n      jump\t// in\n    tag_68:\n        /* \"contracts/PriceConvertor.sol\":834:863  (ethPrice * ethAmount) / 1e18 */\n      tag_70\n      swap2\n      swap1\n      tag_71\n      jump\t// in\n    tag_70:\n        /* \"contracts/PriceConvertor.sol\":809:863  uint256 ethAmountInUsd = (ethPrice * ethAmount) / 1e18 */\n      swap1\n      pop\n        /* \"contracts/PriceConvertor.sol\":880:894  ethAmountInUsd */\n      dup1\n        /* \"contracts/PriceConvertor.sol\":873:894  return ethAmountInUsd */\n      swap3\n      pop\n      pop\n      pop\n        /* \"contracts/PriceConvertor.sol\":682:901  function getConversionRate(uint256 ethAmount) internal view returns (uint256) {... */\n      swap2\n      swap1\n      pop\n      jump\t// out\n        /* \"contracts/PriceConvertor.sol\":164:464  function getPrice() internal view returns (uint256) {... */\n    tag_67:\n        /* \"contracts/PriceConvertor.sol\":207:214  uint256 */\n      0x00\n        /* \"contracts/PriceConvertor.sol\":260:291  AggregatorV3Interface priceFeed */\n      dup1\n        /* \"contracts/PriceConvertor.sol\":316:358  0x694AA1769357215DE4FAC081bf1f309aDC325306 */\n      0x694aa1769357215de4fac081bf1f309adc325306\n        /* \"contracts/PriceConvertor.sol\":260:359  AggregatorV3Interface priceFeed = AggregatorV3Interface(0x694AA1769357215DE4FAC081bf1f309aDC325306) */\n      swap1\n      pop\n        /* \"contracts/PriceConvertor.sol\":371:384  int256 answer */\n      0x00\n        /* \"contracts/PriceConvertor.sol\":391:400  priceFeed */\n      dup2\n        /* \"contracts/PriceConvertor.sol\":391:416  priceFeed.latestRoundData */\n      0xffffffffffffffffffffffffffffffffffffffff\n      and\n      0xfeaf968c\n        /* \"contracts/PriceConvertor.sol\":391:418  priceFeed.latestRoundData() */\n      mload(0x40)\n      dup2\n      0xffffffff\n      and\n      0xe0\n      shl\n      dup2\n      mstore\n      0x04\n      add\n      0xa0\n      mload(0x40)\n      dup1\n      dup4\n      sub\n      dup2\n      dup7\n      gas\n      staticcall\n      iszero\n      dup1\n      iszero\n      tag_74\n      jumpi\n      returndatasize\n      0x00\n      dup1\n      returndatacopy\n      revert(0x00, returndatasize)\n    tag_74:\n      pop\n      pop\n      pop\n      pop\n      mload(0x40)\n      returndatasize\n      not(0x1f)\n      0x1f\n      dup3\n      add\n      and\n      dup3\n      add\n      dup1\n      0x40\n      mstore\n      pop\n      dup2\n      add\n      swap1\n      tag_75\n      swap2\n      swap1\n      tag_76\n      jump\t// in\n    tag_75:\n        /* \"contracts/PriceConvertor.sol\":369:418  (,int256 answer,,,) = priceFeed.latestRoundData() */\n      pop\n      pop\n      pop\n      swap2\n      pop\n      pop\n        /* \"contracts/PriceConvertor.sol\":452:456  1e10 */\n      0x02540be400\n        /* \"contracts/PriceConvertor.sol\":443:449  answer */\n      dup2\n        /* \"contracts/PriceConvertor.sol\":443:456  answer * 1e10 */\n      tag_77\n      swap2\n      swap1\n      tag_78\n      jump\t// in\n    tag_77:\n        /* \"contracts/PriceConvertor.sol\":428:457  return uint256(answer * 1e10) */\n      swap3\n      pop\n      pop\n      pop\n        /* \"contracts/PriceConvertor.sol\":164:464  function getPrice() internal view returns (uint256) {... */\n      swap1\n      jump\t// out\n    tag_45:\n      dup3\n      dup1\n      sload\n      dup3\n      dup3\n      sstore\n      swap1\n      0x00\n      mstore\n      keccak256(0x00, 0x20)\n      swap1\n      dup2\n      add\n      swap3\n      dup3\n      iszero\n      tag_79\n      jumpi\n      swap2\n      0x20\n      mul\n      dup3\n      add\n    tag_80:\n      dup3\n      dup2\n      gt\n      iszero\n      tag_81\n      jumpi\n      dup3\n      mload\n      dup3\n      exp(0x0100, 0x00)\n      dup2\n      sload\n      dup2\n      0xffffffffffffffffffffffffffffffffffffffff\n      mul\n      not\n      and\n      swap1\n      dup4\n      0xffffffffffffffffffffffffffffffffffffffff\n      and\n      mul\n      or\n      swap1\n      sstore\n      pop\n      swap2\n      0x20\n      add\n      swap2\n      swap1\n      0x01\n      add\n      swap1\n      jump(tag_80)\n    tag_81:\n    tag_79:\n      pop\n      swap1\n      pop\n      tag_82\n      swap2\n      swap1\n      tag_83\n      jump\t// in\n    tag_82:\n      pop\n      swap1\n      jump\t// out\n    tag_83:\n    tag_84:\n      dup1\n      dup3\n      gt\n      iszero\n      tag_85\n      jumpi\n      0x00\n      dup2\n      0x00\n      swap1\n      sstore\n      pop\n      0x01\n      add\n      jump(tag_84)\n    tag_85:\n      pop\n      swap1\n      jump\t// out\n        /* \"#utility.yul\":88:205   */\n    tag_87:\n        /* \"#utility.yul\":197:198   */\n      0x00\n        /* \"#utility.yul\":194:195   */\n      dup1\n        /* \"#utility.yul\":187:199   */\n      revert\n        /* \"#utility.yul\":334:460   */\n    tag_89:\n        /* \"#utility.yul\":371:378   */\n      0x00\n        /* \"#utility.yul\":411:453   */\n      0xffffffffffffffffffffffffffffffffffffffff\n        /* \"#utility.yul\":404:409   */\n      dup3\n        /* \"#utility.yul\":400:454   */\n      and\n        /* \"#utility.yul\":389:454   */\n      swap1\n      pop\n        /* \"#utility.yul\":334:460   */\n      swap2\n      swap1\n      pop\n      jump\t// out\n        /* \"#utility.yul\":466:562   */\n    tag_90:\n        /* \"#utility.yul\":503:510   */\n      0x00\n        /* \"#utility.yul\":532:556   */\n      tag_121\n        /* \"#utility.yul\":550:555   */\n      dup3\n        /* \"#utility.yul\":532:556   */\n      tag_89\n      jump\t// in\n    tag_121:\n        /* \"#utility.yul\":521:556   */\n      swap1\n      pop\n        /* \"#utility.yul\":466:562   */\n      swap2\n      swap1\n      pop\n      jump\t// out\n        /* \"#utility.yul\":568:690   */\n    tag_91:\n        /* \"#utility.yul\":641:665   */\n      tag_123\n        /* \"#utility.yul\":659:664   */\n      dup2\n        /* \"#utility.yul\":641:665   */\n      tag_90\n      jump\t// in\n    tag_123:\n        /* \"#utility.yul\":634:639   */\n      dup2\n        /* \"#utility.yul\":631:666   */\n      eq\n        /* \"#utility.yul\":621:684   */\n      tag_124\n      jumpi\n        /* \"#utility.yul\":680:681   */\n      0x00\n        /* \"#utility.yul\":677:678   */\n      dup1\n        /* \"#utility.yul\":670:682   */\n      revert\n        /* \"#utility.yul\":621:684   */\n    tag_124:\n        /* \"#utility.yul\":568:690   */\n      pop\n      jump\t// out\n        /* \"#utility.yul\":696:835   */\n    tag_92:\n        /* \"#utility.yul\":742:747   */\n      0x00\n        /* \"#utility.yul\":780:786   */\n      dup2\n        /* \"#utility.yul\":767:787   */\n      calldataload\n        /* \"#utility.yul\":758:787   */\n      swap1\n      pop\n        /* \"#utility.yul\":796:829   */\n      tag_126\n        /* \"#utility.yul\":823:828   */\n      dup2\n        /* \"#utility.yul\":796:829   */\n      tag_91\n      jump\t// in\n    tag_126:\n        /* \"#utility.yul\":696:835   */\n      swap3\n      swap2\n      pop\n      pop\n      jump\t// out\n        /* \"#utility.yul\":841:1170   */\n    tag_13:\n        /* \"#utility.yul\":900:906   */\n      0x00\n        /* \"#utility.yul\":949:951   */\n      0x20\n        /* \"#utility.yul\":937:946   */\n      dup3\n        /* \"#utility.yul\":928:935   */\n      dup5\n        /* \"#utility.yul\":924:947   */\n      sub\n        /* \"#utility.yul\":920:952   */\n      slt\n        /* \"#utility.yul\":917:1036   */\n      iszero\n      tag_128\n      jumpi\n        /* \"#utility.yul\":955:1034   */\n      tag_129\n      tag_87\n      jump\t// in\n    tag_129:\n        /* \"#utility.yul\":917:1036   */\n    tag_128:\n        /* \"#utility.yul\":1075:1076   */\n      0x00\n        /* \"#utility.yul\":1100:1153   */\n      tag_130\n        /* \"#utility.yul\":1145:1152   */\n      dup5\n        /* \"#utility.yul\":1136:1142   */\n      dup3\n        /* \"#utility.yul\":1125:1134   */\n      dup6\n        /* \"#utility.yul\":1121:1143   */\n      add\n        /* \"#utility.yul\":1100:1153   */\n      tag_92\n      jump\t// in\n    tag_130:\n        /* \"#utility.yul\":1090:1153   */\n      swap2\n      pop\n        /* \"#utility.yul\":1046:1163   */\n      pop\n        /* \"#utility.yul\":841:1170   */\n      swap3\n      swap2\n      pop\n      pop\n      jump\t// out\n        /* \"#utility.yul\":1176:1253   */\n    tag_93:\n        /* \"#utility.yul\":1213:1220   */\n      0x00\n        /* \"#utility.yul\":1242:1247   */\n      dup2\n        /* \"#utility.yul\":1231:1247   */\n      swap1\n      pop\n        /* \"#utility.yul\":1176:1253   */\n      swap2\n      swap1\n      pop\n      jump\t// out\n        /* \"#utility.yul\":1259:1377   */\n    tag_94:\n        /* \"#utility.yul\":1346:1370   */\n      tag_133\n        /* \"#utility.yul\":1364:1369   */\n      dup2\n        /* \"#utility.yul\":1346:1370   */\n      tag_93\n      jump\t// in\n    tag_133:\n        /* \"#utility.yul\":1341:1344   */\n      dup3\n        /* \"#utility.yul\":1334:1371   */\n      mstore\n        /* \"#utility.yul\":1259:1377   */\n      pop\n      pop\n      jump\t// out\n        /* \"#utility.yul\":1383:1605   */\n    tag_16:\n        /* \"#utility.yul\":1476:1480   */\n      0x00\n        /* \"#utility.yul\":1514:1516   */\n      0x20\n        /* \"#utility.yul\":1503:1512   */\n      dup3\n        /* \"#utility.yul\":1499:1517   */\n      add\n        /* \"#utility.yul\":1491:1517   */\n      swap1\n      pop\n        /* \"#utility.yul\":1527:1598   */\n      tag_135\n        /* \"#utility.yul\":1595:1596   */\n      0x00\n        /* \"#utility.yul\":1584:1593   */\n      dup4\n        /* \"#utility.yul\":1580:1597   */\n      add\n        /* \"#utility.yul\":1571:1577   */\n      dup5\n        /* \"#utility.yul\":1527:1598   */\n      tag_94\n      jump\t// in\n    tag_135:\n        /* \"#utility.yul\":1383:1605   */\n      swap3\n      swap2\n      pop\n      pop\n      jump\t// out\n        /* \"#utility.yul\":1611:1729   */\n    tag_95:\n        /* \"#utility.yul\":1698:1722   */\n      tag_137\n        /* \"#utility.yul\":1716:1721   */\n      dup2\n        /* \"#utility.yul\":1698:1722   */\n      tag_90\n      jump\t// in\n    tag_137:\n        /* \"#utility.yul\":1693:1696   */\n      dup3\n        /* \"#utility.yul\":1686:1723   */\n      mstore\n        /* \"#utility.yul\":1611:1729   */\n      pop\n      pop\n      jump\t// out\n        /* \"#utility.yul\":1735:1957   */\n    tag_23:\n        /* \"#utility.yul\":1828:1832   */\n      0x00\n        /* \"#utility.yul\":1866:1868   */\n      0x20\n        /* \"#utility.yul\":1855:1864   */\n      dup3\n        /* \"#utility.yul\":1851:1869   */\n      add\n        /* \"#utility.yul\":1843:1869   */\n      swap1\n      pop\n        /* \"#utility.yul\":1879:1950   */\n      tag_139\n        /* \"#utility.yul\":1947:1948   */\n      0x00\n        /* \"#utility.yul\":1936:1945   */\n      dup4\n        /* \"#utility.yul\":1932:1949   */\n      add\n        /* \"#utility.yul\":1923:1929   */\n      dup5\n        /* \"#utility.yul\":1879:1950   */\n      tag_95\n      jump\t// in\n    tag_139:\n        /* \"#utility.yul\":1735:1957   */\n      swap3\n      swap2\n      pop\n      pop\n      jump\t// out\n        /* \"#utility.yul\":1963:2085   */\n    tag_96:\n        /* \"#utility.yul\":2036:2060   */\n      tag_141\n        /* \"#utility.yul\":2054:2059   */\n      dup2\n        /* \"#utility.yul\":2036:2060   */\n      tag_93\n      jump\t// in\n    tag_141:\n        /* \"#utility.yul\":2029:2034   */\n      dup2\n        /* \"#utility.yul\":2026:2061   */\n      eq\n        /* \"#utility.yul\":2016:2079   */\n      tag_142\n      jumpi\n        /* \"#utility.yul\":2075:2076   */\n      0x00\n        /* \"#utility.yul\":2072:2073   */\n      dup1\n        /* \"#utility.yul\":2065:2077   */\n      revert\n        /* \"#utility.yul\":2016:2079   */\n    tag_142:\n        /* \"#utility.yul\":1963:2085   */\n      pop\n      jump\t// out\n        /* \"#utility.yul\":2091:2230   */\n    tag_97:\n        /* \"#utility.yul\":2137:2142   */\n      0x00\n        /* \"#utility.yul\":2175:2181   */\n      dup2\n        /* \"#utility.yul\":2162:2182   */\n      calldataload\n        /* \"#utility.yul\":2153:2182   */\n      swap1\n      pop\n        /* \"#utility.yul\":2191:2224   */\n      tag_144\n        /* \"#utility.yul\":2218:2223   */\n      dup2\n        /* \"#utility.yul\":2191:2224   */\n      tag_96\n      jump\t// in\n    tag_144:\n        /* \"#utility.yul\":2091:2230   */\n      swap3\n      swap2\n      pop\n      pop\n      jump\t// out\n        /* \"#utility.yul\":2236:2565   */\n    tag_27:\n        /* \"#utility.yul\":2295:2301   */\n      0x00\n        /* \"#utility.yul\":2344:2346   */\n      0x20\n        /* \"#utility.yul\":2332:2341   */\n      dup3\n        /* \"#utility.yul\":2323:2330   */\n      dup5\n        /* \"#utility.yul\":2319:2342   */\n      sub\n        /* \"#utility.yul\":2315:2347   */\n      slt\n        /* \"#utility.yul\":2312:2431   */\n      iszero\n      tag_146\n      jumpi\n        /* \"#utility.yul\":2350:2429   */\n      tag_147\n      tag_87\n      jump\t// in\n    tag_147:\n        /* \"#utility.yul\":2312:2431   */\n    tag_146:\n        /* \"#utility.yul\":2470:2471   */\n      0x00\n        /* \"#utility.yul\":2495:2548   */\n      tag_148\n        /* \"#utility.yul\":2540:2547   */\n      dup5\n        /* \"#utility.yul\":2531:2537   */\n      dup3\n        /* \"#utility.yul\":2520:2529   */\n      dup6\n        /* \"#utility.yul\":2516:2538   */\n      add\n        /* \"#utility.yul\":2495:2548   */\n      tag_97\n      jump\t// in\n    tag_148:\n        /* \"#utility.yul\":2485:2548   */\n      swap2\n      pop\n        /* \"#utility.yul\":2441:2558   */\n      pop\n        /* \"#utility.yul\":2236:2565   */\n      swap3\n      swap2\n      pop\n      pop\n      jump\t// out\n        /* \"#utility.yul\":2571:2751   */\n    tag_38:\n        /* \"#utility.yul\":2619:2696   */\n      0x4e487b7100000000000000000000000000000000000000000000000000000000\n        /* \"#utility.yul\":2616:2617   */\n      0x00\n        /* \"#utility.yul\":2609:2697   */\n      mstore\n        /* \"#utility.yul\":2716:2720   */\n      0x32\n        /* \"#utility.yul\":2713:2714   */\n      0x04\n        /* \"#utility.yul\":2706:2721   */\n      mstore\n        /* \"#utility.yul\":2740:2744   */\n      0x24\n        /* \"#utility.yul\":2737:2738   */\n      0x00\n        /* \"#utility.yul\":2730:2745   */\n      revert\n        /* \"#utility.yul\":2757:2937   */\n    tag_42:\n        /* \"#utility.yul\":2805:2882   */\n      0x4e487b7100000000000000000000000000000000000000000000000000000000\n        /* \"#utility.yul\":2802:2803   */\n      0x00\n        /* \"#utility.yul\":2795:2883   */\n      mstore\n        /* \"#utility.yul\":2902:2906   */\n      0x41\n        /* \"#utility.yul\":2899:2900   */\n      0x04\n        /* \"#utility.yul\":2892:2907   */\n      mstore\n        /* \"#utility.yul\":2926:2930   */\n      0x24\n        /* \"#utility.yul\":2923:2924   */\n      0x00\n        /* \"#utility.yul\":2916:2931   */\n      revert\n        /* \"#utility.yul\":2943:3090   */\n    tag_98:\n        /* \"#utility.yul\":3044:3055   */\n      0x00\n        /* \"#utility.yul\":3081:3084   */\n      dup2\n        /* \"#utility.yul\":3066:3084   */\n      swap1\n      pop\n        /* \"#utility.yul\":2943:3090   */\n      swap3\n      swap2\n      pop\n      pop\n      jump\t// out\n        /* \"#utility.yul\":3096:3210   */\n    tag_99:\n      pop\n      jump\t// out\n        /* \"#utility.yul\":3216:3614   */\n    tag_100:\n        /* \"#utility.yul\":3375:3378   */\n      0x00\n        /* \"#utility.yul\":3396:3479   */\n      tag_154\n        /* \"#utility.yul\":3477:3478   */\n      0x00\n        /* \"#utility.yul\":3472:3475   */\n      dup4\n        /* \"#utility.yul\":3396:3479   */\n      tag_98\n      jump\t// in\n    tag_154:\n        /* \"#utility.yul\":3389:3479   */\n      swap2\n      pop\n        /* \"#utility.yul\":3488:3581   */\n      tag_155\n        /* \"#utility.yul\":3577:3580   */\n      dup3\n        /* \"#utility.yul\":3488:3581   */\n      tag_99\n      jump\t// in\n    tag_155:\n        /* \"#utility.yul\":3606:3607   */\n      0x00\n        /* \"#utility.yul\":3601:3604   */\n      dup3\n        /* \"#utility.yul\":3597:3608   */\n      add\n        /* \"#utility.yul\":3590:3608   */\n      swap1\n      pop\n        /* \"#utility.yul\":3216:3614   */\n      swap2\n      swap1\n      pop\n      jump\t// out\n        /* \"#utility.yul\":3620:3999   */\n    tag_47:\n        /* \"#utility.yul\":3804:3807   */\n      0x00\n        /* \"#utility.yul\":3826:3973   */\n      tag_157\n        /* \"#utility.yul\":3969:3972   */\n      dup3\n        /* \"#utility.yul\":3826:3973   */\n      tag_100\n      jump\t// in\n    tag_157:\n        /* \"#utility.yul\":3819:3973   */\n      swap2\n      pop\n        /* \"#utility.yul\":3990:3993   */\n      dup2\n        /* \"#utility.yul\":3983:3993   */\n      swap1\n      pop\n        /* \"#utility.yul\":3620:3999   */\n      swap2\n      swap1\n      pop\n      jump\t// out\n        /* \"#utility.yul\":4005:4174   */\n    tag_101:\n        /* \"#utility.yul\":4089:4100   */\n      0x00\n        /* \"#utility.yul\":4123:4129   */\n      dup3\n        /* \"#utility.yul\":4118:4121   */\n      dup3\n        /* \"#utility.yul\":4111:4130   */\n      mstore\n        /* \"#utility.yul\":4163:4167   */\n      0x20\n        /* \"#utility.yul\":4158:4161   */\n      dup3\n        /* \"#utility.yul\":4154:4168   */\n      add\n        /* \"#utility.yul\":4139:4168   */\n      swap1\n      pop\n        /* \"#utility.yul\":4005:4174   */\n      swap3\n      swap2\n      pop\n      pop\n      jump\t// out\n        /* \"#utility.yul\":4180:4341   */\n    tag_102:\n        /* \"#utility.yul\":4320:4333   */\n      0x43616c6c206661696c6564000000000000000000000000000000000000000000\n        /* \"#utility.yul\":4316:4317   */\n      0x00\n        /* \"#utility.yul\":4308:4314   */\n      dup3\n        /* \"#utility.yul\":4304:4318   */\n      add\n        /* \"#utility.yul\":4297:4334   */\n      mstore\n        /* \"#utility.yul\":4180:4341   */\n      pop\n      jump\t// out\n        /* \"#utility.yul\":4347:4713   */\n    tag_103:\n        /* \"#utility.yul\":4489:4492   */\n      0x00\n        /* \"#utility.yul\":4510:4577   */\n      tag_161\n        /* \"#utility.yul\":4574:4576   */\n      0x0b\n        /* \"#utility.yul\":4569:4572   */\n      dup4\n        /* \"#utility.yul\":4510:4577   */\n      tag_101\n      jump\t// in\n    tag_161:\n        /* \"#utility.yul\":4503:4577   */\n      swap2\n      pop\n        /* \"#utility.yul\":4586:4679   */\n      tag_162\n        /* \"#utility.yul\":4675:4678   */\n      dup3\n        /* \"#utility.yul\":4586:4679   */\n      tag_102\n      jump\t// in\n    tag_162:\n        /* \"#utility.yul\":4704:4706   */\n      0x20\n        /* \"#utility.yul\":4699:4702   */\n      dup3\n        /* \"#utility.yul\":4695:4707   */\n      add\n        /* \"#utility.yul\":4688:4707   */\n      swap1\n      pop\n        /* \"#utility.yul\":4347:4713   */\n      swap2\n      swap1\n      pop\n      jump\t// out\n        /* \"#utility.yul\":4719:5138   */\n    tag_53:\n        /* \"#utility.yul\":4885:4889   */\n      0x00\n        /* \"#utility.yul\":4923:4925   */\n      0x20\n        /* \"#utility.yul\":4912:4921   */\n      dup3\n        /* \"#utility.yul\":4908:4926   */\n      add\n        /* \"#utility.yul\":4900:4926   */\n      swap1\n      pop\n        /* \"#utility.yul\":4972:4981   */\n      dup2\n        /* \"#utility.yul\":4966:4970   */\n      dup2\n        /* \"#utility.yul\":4962:4982   */\n      sub\n        /* \"#utility.yul\":4958:4959   */\n      0x00\n        /* \"#utility.yul\":4947:4956   */\n      dup4\n        /* \"#utility.yul\":4943:4960   */\n      add\n        /* \"#utility.yul\":4936:4983   */\n      mstore\n        /* \"#utility.yul\":5000:5131   */\n      tag_164\n        /* \"#utility.yul\":5126:5130   */\n      dup2\n        /* \"#utility.yul\":5000:5131   */\n      tag_103\n      jump\t// in\n    tag_164:\n        /* \"#utility.yul\":4992:5131   */\n      swap1\n      pop\n        /* \"#utility.yul\":4719:5138   */\n      swap2\n      swap1\n      pop\n      jump\t// out\n        /* \"#utility.yul\":5144:5312   */\n    tag_104:\n        /* \"#utility.yul\":5284:5304   */\n      0x4469646e27742073656e6420656e6f7567680000000000000000000000000000\n        /* \"#utility.yul\":5280:5281   */\n      0x00\n        /* \"#utility.yul\":5272:5278   */\n      dup3\n        /* \"#utility.yul\":5268:5282   */\n      add\n        /* \"#utility.yul\":5261:5305   */\n      mstore\n        /* \"#utility.yul\":5144:5312   */\n      pop\n      jump\t// out\n        /* \"#utility.yul\":5318:5684   */\n    tag_105:\n        /* \"#utility.yul\":5460:5463   */\n      0x00\n        /* \"#utility.yul\":5481:5548   */\n      tag_167\n        /* \"#utility.yul\":5545:5547   */\n      0x12\n        /* \"#utility.yul\":5540:5543   */\n      dup4\n        /* \"#utility.yul\":5481:5548   */\n      tag_101\n      jump\t// in\n    tag_167:\n        /* \"#utility.yul\":5474:5548   */\n      swap2\n      pop\n        /* \"#utility.yul\":5557:5650   */\n      tag_168\n        /* \"#utility.yul\":5646:5649   */\n      dup3\n        /* \"#utility.yul\":5557:5650   */\n      tag_104\n      jump\t// in\n    tag_168:\n        /* \"#utility.yul\":5675:5677   */\n      0x20\n        /* \"#utility.yul\":5670:5673   */\n      dup3\n        /* \"#utility.yul\":5666:5678   */\n      add\n        /* \"#utility.yul\":5659:5678   */\n      swap1\n      pop\n        /* \"#utility.yul\":5318:5684   */\n      swap2\n      swap1\n      pop\n      jump\t// out\n        /* \"#utility.yul\":5690:6109   */\n    tag_59:\n        /* \"#utility.yul\":5856:5860   */\n      0x00\n        /* \"#utility.yul\":5894:5896   */\n      0x20\n        /* \"#utility.yul\":5883:5892   */\n      dup3\n        /* \"#utility.yul\":5879:5897   */\n      add\n        /* \"#utility.yul\":5871:5897   */\n      swap1\n      pop\n        /* \"#utility.yul\":5943:5952   */\n      dup2\n        /* \"#utility.yul\":5937:5941   */\n      dup2\n        /* \"#utility.yul\":5933:5953   */\n      sub\n        /* \"#utility.yul\":5929:5930   */\n      0x00\n        /* \"#utility.yul\":5918:5927   */\n      dup4\n        /* \"#utility.yul\":5914:5931   */\n      add\n        /* \"#utility.yul\":5907:5954   */\n      mstore\n        /* \"#utility.yul\":5971:6102   */\n      tag_170\n        /* \"#utility.yul\":6097:6101   */\n      dup2\n        /* \"#utility.yul\":5971:6102   */\n      tag_105\n      jump\t// in\n    tag_170:\n        /* \"#utility.yul\":5963:6102   */\n      swap1\n      pop\n        /* \"#utility.yul\":5690:6109   */\n      swap2\n      swap1\n      pop\n      jump\t// out\n        /* \"#utility.yul\":6115:6295   */\n    tag_106:\n        /* \"#utility.yul\":6163:6240   */\n      0x4e487b7100000000000000000000000000000000000000000000000000000000\n        /* \"#utility.yul\":6160:6161   */\n      0x00\n        /* \"#utility.yul\":6153:6241   */\n      mstore\n        /* \"#utility.yul\":6260:6264   */\n      0x11\n        /* \"#utility.yul\":6257:6258   */\n      0x04\n        /* \"#utility.yul\":6250:6265   */\n      mstore\n        /* \"#utility.yul\":6284:6288   */\n      0x24\n        /* \"#utility.yul\":6281:6282   */\n      0x00\n        /* \"#utility.yul\":6274:6289   */\n      revert\n        /* \"#utility.yul\":6301:6492   */\n    tag_62:\n        /* \"#utility.yul\":6341:6344   */\n      0x00\n        /* \"#utility.yul\":6360:6380   */\n      tag_173\n        /* \"#utility.yul\":6378:6379   */\n      dup3\n        /* \"#utility.yul\":6360:6380   */\n      tag_93\n      jump\t// in\n    tag_173:\n        /* \"#utility.yul\":6355:6380   */\n      swap2\n      pop\n        /* \"#utility.yul\":6394:6414   */\n      tag_174\n        /* \"#utility.yul\":6412:6413   */\n      dup4\n        /* \"#utility.yul\":6394:6414   */\n      tag_93\n      jump\t// in\n    tag_174:\n        /* \"#utility.yul\":6389:6414   */\n      swap3\n      pop\n        /* \"#utility.yul\":6437:6438   */\n      dup3\n        /* \"#utility.yul\":6434:6435   */\n      dup3\n        /* \"#utility.yul\":6430:6439   */\n      add\n        /* \"#utility.yul\":6423:6439   */\n      swap1\n      pop\n        /* \"#utility.yul\":6458:6461   */\n      dup1\n        /* \"#utility.yul\":6455:6456   */\n      dup3\n        /* \"#utility.yul\":6452:6462   */\n      gt\n        /* \"#utility.yul\":6449:6485   */\n      iszero\n      tag_175\n      jumpi\n        /* \"#utility.yul\":6465:6483   */\n      tag_176\n      tag_106\n      jump\t// in\n    tag_176:\n        /* \"#utility.yul\":6449:6485   */\n    tag_175:\n        /* \"#utility.yul\":6301:6492   */\n      swap3\n      swap2\n      pop\n      pop\n      jump\t// out\n        /* \"#utility.yul\":6498:6908   */\n    tag_69:\n        /* \"#utility.yul\":6538:6545   */\n      0x00\n        /* \"#utility.yul\":6561:6581   */\n      tag_178\n        /* \"#utility.yul\":6579:6580   */\n      dup3\n        /* \"#utility.yul\":6561:6581   */\n      tag_93\n      jump\t// in\n    tag_178:\n        /* \"#utility.yul\":6556:6581   */\n      swap2\n      pop\n        /* \"#utility.yul\":6595:6615   */\n      tag_179\n        /* \"#utility.yul\":6613:6614   */\n      dup4\n        /* \"#utility.yul\":6595:6615   */\n      tag_93\n      jump\t// in\n    tag_179:\n        /* \"#utility.yul\":6590:6615   */\n      swap3\n      pop\n        /* \"#utility.yul\":6650:6651   */\n      dup3\n        /* \"#utility.yul\":6647:6648   */\n      dup3\n        /* \"#utility.yul\":6643:6652   */\n      mul\n        /* \"#utility.yul\":6672:6702   */\n      tag_180\n        /* \"#utility.yul\":6690:6701   */\n      dup2\n        /* \"#utility.yul\":6672:6702   */\n      tag_93\n      jump\t// in\n    tag_180:\n        /* \"#utility.yul\":6661:6702   */\n      swap2\n      pop\n        /* \"#utility.yul\":6851:6852   */\n      dup3\n        /* \"#utility.yul\":6842:6849   */\n      dup3\n        /* \"#utility.yul\":6838:6853   */\n      div\n        /* \"#utility.yul\":6835:6836   */\n      dup5\n        /* \"#utility.yul\":6832:6854   */\n      eq\n        /* \"#utility.yul\":6812:6813   */\n      dup4\n        /* \"#utility.yul\":6805:6814   */\n      iszero\n        /* \"#utility.yul\":6785:6868   */\n      or\n        /* \"#utility.yul\":6762:6901   */\n      tag_181\n      jumpi\n        /* \"#utility.yul\":6881:6899   */\n      tag_182\n      tag_106\n      jump\t// in\n    tag_182:\n        /* \"#utility.yul\":6762:6901   */\n    tag_181:\n        /* \"#utility.yul\":6546:6908   */\n      pop\n        /* \"#utility.yul\":6498:6908   */\n      swap3\n      swap2\n      pop\n      pop\n      jump\t// out\n        /* \"#utility.yul\":6914:7094   */\n    tag_107:\n        /* \"#utility.yul\":6962:7039   */\n      0x4e487b7100000000000000000000000000000000000000000000000000000000\n        /* \"#utility.yul\":6959:6960   */\n      0x00\n        /* \"#utility.yul\":6952:7040   */\n      mstore\n        /* \"#utility.yul\":7059:7063   */\n      0x12\n        /* \"#utility.yul\":7056:7057   */\n      0x04\n        /* \"#utility.yul\":7049:7064   */\n      mstore\n        /* \"#utility.yul\":7083:7087   */\n      0x24\n        /* \"#utility.yul\":7080:7081   */\n      0x00\n        /* \"#utility.yul\":7073:7088   */\n      revert\n        /* \"#utility.yul\":7100:7285   */\n    tag_71:\n        /* \"#utility.yul\":7140:7141   */\n      0x00\n        /* \"#utility.yul\":7157:7177   */\n      tag_185\n        /* \"#utility.yul\":7175:7176   */\n      dup3\n        /* \"#utility.yul\":7157:7177   */\n      tag_93\n      jump\t// in\n    tag_185:\n        /* \"#utility.yul\":7152:7177   */\n      swap2\n      pop\n        /* \"#utility.yul\":7191:7211   */\n      tag_186\n        /* \"#utility.yul\":7209:7210   */\n      dup4\n        /* \"#utility.yul\":7191:7211   */\n      tag_93\n      jump\t// in\n    tag_186:\n        /* \"#utility.yul\":7186:7211   */\n      swap3\n      pop\n        /* \"#utility.yul\":7230:7231   */\n      dup3\n        /* \"#utility.yul\":7220:7255   */\n      tag_187\n      jumpi\n        /* \"#utility.yul\":7235:7253   */\n      tag_188\n      tag_107\n      jump\t// in\n    tag_188:\n        /* \"#utility.yul\":7220:7255   */\n    tag_187:\n        /* \"#utility.yul\":7277:7278   */\n      dup3\n        /* \"#utility.yul\":7274:7275   */\n      dup3\n        /* \"#utility.yul\":7270:7279   */\n      div\n        /* \"#utility.yul\":7265:7279   */\n      swap1\n      pop\n        /* \"#utility.yul\":7100:7285   */\n      swap3\n      swap2\n      pop\n      pop\n      jump\t// out\n        /* \"#utility.yul\":7291:7396   */\n    tag_108:\n        /* \"#utility.yul\":7327:7334   */\n      0x00\n        /* \"#utility.yul\":7367:7389   */\n      0xffffffffffffffffffff\n        /* \"#utility.yul\":7360:7365   */\n      dup3\n        /* \"#utility.yul\":7356:7390   */\n      and\n        /* \"#utility.yul\":7345:7390   */\n      swap1\n      pop\n        /* \"#utility.yul\":7291:7396   */\n      swap2\n      swap1\n      pop\n      jump\t// out\n        /* \"#utility.yul\":7402:7522   */\n    tag_109:\n        /* \"#utility.yul\":7474:7497   */\n      tag_191\n        /* \"#utility.yul\":7491:7496   */\n      dup2\n        /* \"#utility.yul\":7474:7497   */\n      tag_108\n      jump\t// in\n    tag_191:\n        /* \"#utility.yul\":7467:7472   */\n      dup2\n        /* \"#utility.yul\":7464:7498   */\n      eq\n        /* \"#utility.yul\":7454:7516   */\n      tag_192\n      jumpi\n        /* \"#utility.yul\":7512:7513   */\n      0x00\n        /* \"#utility.yul\":7509:7510   */\n      dup1\n        /* \"#utility.yul\":7502:7514   */\n      revert\n        /* \"#utility.yul\":7454:7516   */\n    tag_192:\n        /* \"#utility.yul\":7402:7522   */\n      pop\n      jump\t// out\n        /* \"#utility.yul\":7528:7669   */\n    tag_110:\n        /* \"#utility.yul\":7584:7589   */\n      0x00\n        /* \"#utility.yul\":7615:7621   */\n      dup2\n        /* \"#utility.yul\":7609:7622   */\n      mload\n        /* \"#utility.yul\":7600:7622   */\n      swap1\n      pop\n        /* \"#utility.yul\":7631:7663   */\n      tag_194\n        /* \"#utility.yul\":7657:7662   */\n      dup2\n        /* \"#utility.yul\":7631:7663   */\n      tag_109\n      jump\t// in\n    tag_194:\n        /* \"#utility.yul\":7528:7669   */\n      swap3\n      swap2\n      pop\n      pop\n      jump\t// out\n        /* \"#utility.yul\":7675:7751   */\n    tag_111:\n        /* \"#utility.yul\":7711:7718   */\n      0x00\n        /* \"#utility.yul\":7740:7745   */\n      dup2\n        /* \"#utility.yul\":7729:7745   */\n      swap1\n      pop\n        /* \"#utility.yul\":7675:7751   */\n      swap2\n      swap1\n      pop\n      jump\t// out\n        /* \"#utility.yul\":7757:7877   */\n    tag_112:\n        /* \"#utility.yul\":7829:7852   */\n      tag_197\n        /* \"#utility.yul\":7846:7851   */\n      dup2\n        /* \"#utility.yul\":7829:7852   */\n      tag_111\n      jump\t// in\n    tag_197:\n        /* \"#utility.yul\":7822:7827   */\n      dup2\n        /* \"#utility.yul\":7819:7853   */\n      eq\n        /* \"#utility.yul\":7809:7871   */\n      tag_198\n      jumpi\n        /* \"#utility.yul\":7867:7868   */\n      0x00\n        /* \"#utility.yul\":7864:7865   */\n      dup1\n        /* \"#utility.yul\":7857:7869   */\n      revert\n        /* \"#utility.yul\":7809:7871   */\n    tag_198:\n        /* \"#utility.yul\":7757:7877   */\n      pop\n      jump\t// out\n        /* \"#utility.yul\":7883:8024   */\n    tag_113:\n        /* \"#utility.yul\":7939:7944   */\n      0x00\n        /* \"#utility.yul\":7970:7976   */\n      dup2\n        /* \"#utility.yul\":7964:7977   */\n      mload\n        /* \"#utility.yul\":7955:7977   */\n      swap1\n      pop\n        /* \"#utility.yul\":7986:8018   */\n      tag_200\n        /* \"#utility.yul\":8012:8017   */\n      dup2\n        /* \"#utility.yul\":7986:8018   */\n      tag_112\n      jump\t// in\n    tag_200:\n        /* \"#utility.yul\":7883:8024   */\n      swap3\n      swap2\n      pop\n      pop\n      jump\t// out\n        /* \"#utility.yul\":8030:8173   */\n    tag_114:\n        /* \"#utility.yul\":8087:8092   */\n      0x00\n        /* \"#utility.yul\":8118:8124   */\n      dup2\n        /* \"#utility.yul\":8112:8125   */\n      mload\n        /* \"#utility.yul\":8103:8125   */\n      swap1\n      pop\n        /* \"#utility.yul\":8134:8167   */\n      tag_202\n        /* \"#utility.yul\":8161:8166   */\n      dup2\n        /* \"#utility.yul\":8134:8167   */\n      tag_96\n      jump\t// in\n    tag_202:\n        /* \"#utility.yul\":8030:8173   */\n      swap3\n      swap2\n      pop\n      pop\n      jump\t// out\n        /* \"#utility.yul\":8179:9150   */\n    tag_76:\n        /* \"#utility.yul\":8282:8288   */\n      0x00\n        /* \"#utility.yul\":8290:8296   */\n      dup1\n        /* \"#utility.yul\":8298:8304   */\n      0x00\n        /* \"#utility.yul\":8306:8312   */\n      dup1\n        /* \"#utility.yul\":8314:8320   */\n      0x00\n        /* \"#utility.yul\":8363:8366   */\n      0xa0\n        /* \"#utility.yul\":8351:8360   */\n      dup7\n        /* \"#utility.yul\":8342:8349   */\n      dup9\n        /* \"#utility.yul\":8338:8361   */\n      sub\n        /* \"#utility.yul\":8334:8367   */\n      slt\n        /* \"#utility.yul\":8331:8451   */\n      iszero\n      tag_204\n      jumpi\n        /* \"#utility.yul\":8370:8449   */\n      tag_205\n      tag_87\n      jump\t// in\n    tag_205:\n        /* \"#utility.yul\":8331:8451   */\n    tag_204:\n        /* \"#utility.yul\":8490:8491   */\n      0x00\n        /* \"#utility.yul\":8515:8578   */\n      tag_206\n        /* \"#utility.yul\":8570:8577   */\n      dup9\n        /* \"#utility.yul\":8561:8567   */\n      dup3\n        /* \"#utility.yul\":8550:8559   */\n      dup10\n        /* \"#utility.yul\":8546:8568   */\n      add\n        /* \"#utility.yul\":8515:8578   */\n      tag_110\n      jump\t// in\n    tag_206:\n        /* \"#utility.yul\":8505:8578   */\n      swap6\n      pop\n        /* \"#utility.yul\":8461:8588   */\n      pop\n        /* \"#utility.yul\":8627:8629   */\n      0x20\n        /* \"#utility.yul\":8653:8716   */\n      tag_207\n        /* \"#utility.yul\":8708:8715   */\n      dup9\n        /* \"#utility.yul\":8699:8705   */\n      dup3\n        /* \"#utility.yul\":8688:8697   */\n      dup10\n        /* \"#utility.yul\":8684:8706   */\n      add\n        /* \"#utility.yul\":8653:8716   */\n      tag_113\n      jump\t// in\n    tag_207:\n        /* \"#utility.yul\":8643:8716   */\n      swap5\n      pop\n        /* \"#utility.yul\":8598:8726   */\n      pop\n        /* \"#utility.yul\":8765:8767   */\n      0x40\n        /* \"#utility.yul\":8791:8855   */\n      tag_208\n        /* \"#utility.yul\":8847:8854   */\n      dup9\n        /* \"#utility.yul\":8838:8844   */\n      dup3\n        /* \"#utility.yul\":8827:8836   */\n      dup10\n        /* \"#utility.yul\":8823:8845   */\n      add\n        /* \"#utility.yul\":8791:8855   */\n      tag_114\n      jump\t// in\n    tag_208:\n        /* \"#utility.yul\":8781:8855   */\n      swap4\n      pop\n        /* \"#utility.yul\":8736:8865   */\n      pop\n        /* \"#utility.yul\":8904:8906   */\n      0x60\n        /* \"#utility.yul\":8930:8994   */\n      tag_209\n        /* \"#utility.yul\":8986:8993   */\n      dup9\n        /* \"#utility.yul\":8977:8983   */\n      dup3\n        /* \"#utility.yul\":8966:8975   */\n      dup10\n        /* \"#utility.yul\":8962:8984   */\n      add\n        /* \"#utility.yul\":8930:8994   */\n      tag_114\n      jump\t// in\n    tag_209:\n        /* \"#utility.yul\":8920:8994   */\n      swap3\n      pop\n        /* \"#utility.yul\":8875:9004   */\n      pop\n        /* \"#utility.yul\":9043:9046   */\n      0x80\n        /* \"#utility.yul\":9070:9133   */\n      tag_210\n        /* \"#utility.yul\":9125:9132   */\n      dup9\n        /* \"#utility.yul\":9116:9122   */\n      dup3\n        /* \"#utility.yul\":9105:9114   */\n      dup10\n        /* \"#utility.yul\":9101:9123   */\n      add\n        /* \"#utility.yul\":9070:9133   */\n      tag_110\n      jump\t// in\n    tag_210:\n        /* \"#utility.yul\":9060:9133   */\n      swap2\n      pop\n        /* \"#utility.yul\":9014:9143   */\n      pop\n        /* \"#utility.yul\":8179:9150   */\n      swap3\n      swap6\n      pop\n      swap3\n      swap6\n      swap1\n      swap4\n      pop\n      jump\t// out\n        /* \"#utility.yul\":9156:9712   */\n    tag_78:\n        /* \"#utility.yul\":9195:9202   */\n      0x00\n        /* \"#utility.yul\":9218:9237   */\n      tag_212\n        /* \"#utility.yul\":9235:9236   */\n      dup3\n        /* \"#utility.yul\":9218:9237   */\n      tag_111\n      jump\t// in\n    tag_212:\n        /* \"#utility.yul\":9213:9237   */\n      swap2\n      pop\n        /* \"#utility.yul\":9251:9270   */\n      tag_213\n        /* \"#utility.yul\":9268:9269   */\n      dup4\n        /* \"#utility.yul\":9251:9270   */\n      tag_111\n      jump\t// in\n    tag_213:\n        /* \"#utility.yul\":9246:9270   */\n      swap3\n      pop\n        /* \"#utility.yul\":9305:9306   */\n      dup3\n        /* \"#utility.yul\":9302:9303   */\n      dup3\n        /* \"#utility.yul\":9298:9307   */\n      mul\n        /* \"#utility.yul\":9327:9356   */\n      tag_214\n        /* \"#utility.yul\":9344:9355   */\n      dup2\n        /* \"#utility.yul\":9327:9356   */\n      tag_111\n      jump\t// in\n    tag_214:\n        /* \"#utility.yul\":9316:9356   */\n      swap2\n      pop\n        /* \"#utility.yul\":9414:9480   */\n      0x8000000000000000000000000000000000000000000000000000000000000000\n        /* \"#utility.yul\":9411:9412   */\n      dup5\n        /* \"#utility.yul\":9408:9481   */\n      eq\n        /* \"#utility.yul\":9404:9405   */\n      0x00\n        /* \"#utility.yul\":9401:9402   */\n      dup5\n        /* \"#utility.yul\":9397:9406   */\n      slt\n        /* \"#utility.yul\":9393:9482   */\n      and\n        /* \"#utility.yul\":9390:9505   */\n      iszero\n      tag_215\n      jumpi\n        /* \"#utility.yul\":9485:9503   */\n      tag_216\n      tag_106\n      jump\t// in\n    tag_216:\n        /* \"#utility.yul\":9390:9505   */\n    tag_215:\n        /* \"#utility.yul\":9655:9656   */\n      dup3\n        /* \"#utility.yul\":9646:9653   */\n      dup3\n        /* \"#utility.yul\":9641:9657   */\n      sdiv\n        /* \"#utility.yul\":9638:9639   */\n      dup5\n        /* \"#utility.yul\":9635:9658   */\n      eq\n        /* \"#utility.yul\":9615:9616   */\n      dup4\n        /* \"#utility.yul\":9608:9617   */\n      iszero\n        /* \"#utility.yul\":9588:9672   */\n      or\n        /* \"#utility.yul\":9565:9705   */\n      tag_217\n      jumpi\n        /* \"#utility.yul\":9685:9703   */\n      tag_218\n      tag_106\n      jump\t// in\n    tag_218:\n        /* \"#utility.yul\":9565:9705   */\n    tag_217:\n        /* \"#utility.yul\":9203:9712   */\n      pop\n        /* \"#utility.yul\":9156:9712   */\n      swap3\n      swap2\n      pop\n      pop\n      jump\t// out\n\n    auxdata: 0xa2646970667358221220345b3dc0f70cf0b64f5ab0c904fb4c2f91de020fd23553b951c18c65cbd3563b64736f6c63430008160033\n}\n",
				"bytecode": {
					"linkReferences": {},
					"object": "60a060405234801561000f575f80fd5b503373ffffffffffffffffffffffffffffffffffffffff1660808173ffffffffffffffffffffffffffffffffffffffff1681525050608051610b8c6100635f395f818161011101526104580152610b8c5ff3fe608060405260043610610049575f3560e01c80633ccfd60b1461004d5780633e47d6f314610063578063b60d42881461009f578063dba6335f146100a9578063dc0d3dff146100d3575b5f80fd5b348015610058575f80fd5b5061006161010f565b005b34801561006e575f80fd5b5061008960048036038101906100849190610691565b61033a565b60405161009691906106d4565b60405180910390f35b6100a761034f565b005b3480156100b4575f80fd5b506100bd610456565b6040516100ca91906106fc565b60405180910390f35b3480156100de575f80fd5b506100f960048036038101906100f4919061073f565b61047a565b60405161010691906106fc565b60405180910390f35b7f000000000000000000000000000000000000000000000000000000000000000073ffffffffffffffffffffffffffffffffffffffff163373ffffffffffffffffffffffffffffffffffffffff1614610194576040517f30cd747100000000000000000000000000000000000000000000000000000000815260040160405180910390fd5b5f5b5f80549050811015610230575f8082815481106101b6576101b561076a565b5b905f5260205f20015f9054906101000a900473ffffffffffffffffffffffffffffffffffffffff1690505f60015f8373ffffffffffffffffffffffffffffffffffffffff1673ffffffffffffffffffffffffffffffffffffffff1681526020019081526020015f2081905550508080600101915050610196565b505f67ffffffffffffffff81111561024b5761024a610797565b5b6040519080825280602002602001820160405280156102795781602001602082028036833780820191505090505b505f908051906020019061028e929190610591565b505f3373ffffffffffffffffffffffffffffffffffffffff16476040516102b4906107f1565b5f6040518083038185875af1925050503d805f81146102ee576040519150601f19603f3d011682016040523d82523d5f602084013e6102f3565b606091505b5050905080610337576040517f08c379a000000000000000000000000000000000000000000000000000000000815260040161032e9061085f565b60405180910390fd5b50565b6001602052805f5260405f205f915090505481565b670de0b6b3a7640000610361346104b4565b10156103a2576040517f08c379a0000000000000000000000000000000000000000000000000000000008152600401610399906108c7565b60405180910390fd5b5f33908060018154018082558091505060019003905f5260205f20015f9091909190916101000a81548173ffffffffffffffffffffffffffffffffffffffff021916908373ffffffffffffffffffffffffffffffffffffffff1602179055503460015f3373ffffffffffffffffffffffffffffffffffffffff1673ffffffffffffffffffffffffffffffffffffffff1681526020019081526020015f205f82825461044d9190610912565b92505081905550565b7f000000000000000000000000000000000000000000000000000000000000000081565b5f8181548110610488575f80fd5b905f5260205f20015f915054906101000a900473ffffffffffffffffffffffffffffffffffffffff1681565b5f806104be6104ec565b90505f670de0b6b3a764000084836104d69190610945565b6104e091906109b3565b90508092505050919050565b5f8073694aa1769357215de4fac081bf1f309adc32530690505f8173ffffffffffffffffffffffffffffffffffffffff1663feaf968c6040518163ffffffff1660e01b815260040160a060405180830381865afa15801561054f573d5f803e3d5ffd5b505050506040513d601f19601f820116820180604052508101906105739190610a69565b5050509150506402540be4008161058a9190610ae0565b9250505090565b828054828255905f5260205f20908101928215610607579160200282015b82811115610606578251825f6101000a81548173ffffffffffffffffffffffffffffffffffffffff021916908373ffffffffffffffffffffffffffffffffffffffff160217905550916020019190600101906105af565b5b5090506106149190610618565b5090565b5b8082111561062f575f815f905550600101610619565b5090565b5f80fd5b5f73ffffffffffffffffffffffffffffffffffffffff82169050919050565b5f61066082610637565b9050919050565b61067081610656565b811461067a575f80fd5b50565b5f8135905061068b81610667565b92915050565b5f602082840312156106a6576106a5610633565b5b5f6106b38482850161067d565b91505092915050565b5f819050919050565b6106ce816106bc565b82525050565b5f6020820190506106e75f8301846106c5565b92915050565b6106f681610656565b82525050565b5f60208201905061070f5f8301846106ed565b92915050565b61071e816106bc565b8114610728575f80fd5b50565b5f8135905061073981610715565b92915050565b5f6020828403121561075457610753610633565b5b5f6107618482850161072b565b91505092915050565b7f4e487b71000000000000000000000000000000000000000000000000000000005f52603260045260245ffd5b7f4e487b71000000000000000000000000000000000000000000000000000000005f52604160045260245ffd5b5f81905092915050565b50565b5f6107dc5f836107c4565b91506107e7826107ce565b5f82019050919050565b5f6107fb826107d1565b9150819050919050565b5f82825260208201905092915050565b7f43616c6c206661696c65640000000000000000000000000000000000000000005f82015250565b5f610849600b83610805565b915061085482610815565b602082019050919050565b5f6020820190508181035f8301526108768161083d565b9050919050565b7f4469646e27742073656e6420656e6f75676800000000000000000000000000005f82015250565b5f6108b1601283610805565b91506108bc8261087d565b602082019050919050565b5f6020820190508181035f8301526108de816108a5565b9050919050565b7f4e487b71000000000000000000000000000000000000000000000000000000005f52601160045260245ffd5b5f61091c826106bc565b9150610927836106bc565b925082820190508082111561093f5761093e6108e5565b5b92915050565b5f61094f826106bc565b915061095a836106bc565b9250828202610968816106bc565b9150828204841483151761097f5761097e6108e5565b5b5092915050565b7f4e487b71000000000000000000000000000000000000000000000000000000005f52601260045260245ffd5b5f6109bd826106bc565b91506109c8836106bc565b9250826109d8576109d7610986565b5b828204905092915050565b5f69ffffffffffffffffffff82169050919050565b610a01816109e3565b8114610a0b575f80fd5b50565b5f81519050610a1c816109f8565b92915050565b5f819050919050565b610a3481610a22565b8114610a3e575f80fd5b50565b5f81519050610a4f81610a2b565b92915050565b5f81519050610a6381610715565b92915050565b5f805f805f60a08688031215610a8257610a81610633565b5b5f610a8f88828901610a0e565b9550506020610aa088828901610a41565b9450506040610ab188828901610a55565b9350506060610ac288828901610a55565b9250506080610ad388828901610a0e565b9150509295509295909350565b5f610aea82610a22565b9150610af583610a22565b9250828202610b0381610a22565b91507f800000000000000000000000000000000000000000000000000000000000000084145f84121615610b3a57610b396108e5565b5b8282058414831517610b4f57610b4e6108e5565b5b509291505056fea2646970667358221220345b3dc0f70cf0b64f5ab0c904fb4c2f91de020fd23553b951c18c65cbd3563b64736f6c63430008160033",
					"opcodes": "PUSH1 0xA0 PUSH1 0x40 MSTORE CALLVALUE DUP1 ISZERO PUSH2 0xF JUMPI PUSH0 DUP1 REVERT JUMPDEST POP CALLER PUSH20 0xFFFFFFFFFFFFFFFFFFFFFFFFFFFFFFFFFFFFFFFF AND PUSH1 0x80 DUP2 PUSH20 0xFFFFFFFFFFFFFFFFFFFFFFFFFFFFFFFFFFFFFFFF AND DUP2 MSTORE POP POP PUSH1 0x80 MLOAD PUSH2 0xB8C PUSH2 0x63 PUSH0 CODECOPY PUSH0 DUP2 DUP2 PUSH2 0x111 ADD MSTORE PUSH2 0x458 ADD MSTORE PUSH2 0xB8C PUSH0 RETURN INVALID PUSH1 0x80 PUSH1 0x40 MSTORE PUSH1 0x4 CALLDATASIZE LT PUSH2 0x49 JUMPI PUSH0 CALLDATALOAD PUSH1 0xE0 SHR DUP1 PUSH4 0x3CCFD60B EQ PUSH2 0x4D JUMPI DUP1 PUSH4 0x3E47D6F3 EQ PUSH2 0x63 JUMPI DUP1 PUSH4 0xB60D4288 EQ PUSH2 0x9F JUMPI DUP1 PUSH4 0xDBA6335F EQ PUSH2 0xA9 JUMPI DUP1 PUSH4 0xDC0D3DFF EQ PUSH2 0xD3 JUMPI JUMPDEST PUSH0 DUP1 REVERT JUMPDEST CALLVALUE DUP1 ISZERO PUSH2 0x58 JUMPI PUSH0 DUP1 REVERT JUMPDEST POP PUSH2 0x61 PUSH2 0x10F JUMP JUMPDEST STOP JUMPDEST CALLVALUE DUP1 ISZERO PUSH2 0x6E JUMPI PUSH0 DUP1 REVERT JUMPDEST POP PUSH2 0x89 PUSH1 0x4 DUP1 CALLDATASIZE SUB DUP2 ADD SWAP1 PUSH2 0x84 SWAP2 SWAP1 PUSH2 0x691 JUMP JUMPDEST PUSH2 0x33A JUMP JUMPDEST PUSH1 0x40 MLOAD PUSH2 0x96 SWAP2 SWAP1 PUSH2 0x6D4 JUMP JUMPDEST PUSH1 0x40 MLOAD DUP1 SWAP2 SUB SWAP1 RETURN JUMPDEST PUSH2 0xA7 PUSH2 0x34F JUMP JUMPDEST STOP JUMPDEST CALLVALUE DUP1 ISZERO PUSH2 0xB4 JUMPI PUSH0 DUP1 REVERT JUMPDEST POP PUSH2 0xBD PUSH2 0x456 JUMP JUMPDEST PUSH1 0x40 MLOAD PUSH2 0xCA SWAP2 SWAP1 PUSH2 0x6FC JUMP JUMPDEST PUSH1 0x40 MLOAD DUP1 SWAP2 SUB SWAP1 RETURN JUMPDEST CALLVALUE DUP1 ISZERO PUSH2 0xDE JUMPI PUSH0 DUP1 REVERT JUMPDEST POP PUSH2 0xF9 PUSH1 0x4 DUP1 CALLDATASIZE SUB DUP2 ADD SWAP1 PUSH2 0xF4 SWAP2 SWAP1 PUSH2 0x73F JUMP JUMPDEST PUSH2 0x47A JUMP JUMPDEST PUSH1 0x40 MLOAD PUSH2 0x106 SWAP2 SWAP1 PUSH2 0x6FC JUMP JUMPDEST PUSH1 0x40 MLOAD DUP1 SWAP2 SUB SWAP1 RETURN JUMPDEST PUSH32 0x0 PUSH20 0xFFFFFFFFFFFFFFFFFFFFFFFFFFFFFFFFFFFFFFFF AND CALLER PUSH20 0xFFFFFFFFFFFFFFFFFFFFFFFFFFFFFFFFFFFFFFFF AND EQ PUSH2 0x194 JUMPI PUSH1 0x40 MLOAD PUSH32 0x30CD747100000000000000000000000000000000000000000000000000000000 DUP2 MSTORE PUSH1 0x4 ADD PUSH1 0x40 MLOAD DUP1 SWAP2 SUB SWAP1 REVERT JUMPDEST PUSH0 JUMPDEST PUSH0 DUP1 SLOAD SWAP1 POP DUP2 LT ISZERO PUSH2 0x230 JUMPI PUSH0 DUP1 DUP3 DUP2 SLOAD DUP2 LT PUSH2 0x1B6 JUMPI PUSH2 0x1B5 PUSH2 0x76A JUMP JUMPDEST JUMPDEST SWAP1 PUSH0 MSTORE PUSH1 0x20 PUSH0 KECCAK256 ADD PUSH0 SWAP1 SLOAD SWAP1 PUSH2 0x100 EXP SWAP1 DIV PUSH20 0xFFFFFFFFFFFFFFFFFFFFFFFFFFFFFFFFFFFFFFFF AND SWAP1 POP PUSH0 PUSH1 0x1 PUSH0 DUP4 PUSH20 0xFFFFFFFFFFFFFFFFFFFFFFFFFFFFFFFFFFFFFFFF AND PUSH20 0xFFFFFFFFFFFFFFFFFFFFFFFFFFFFFFFFFFFFFFFF AND DUP2 MSTORE PUSH1 0x20 ADD SWAP1 DUP2 MSTORE PUSH1 0x20 ADD PUSH0 KECCAK256 DUP2 SWAP1 SSTORE POP POP DUP1 DUP1 PUSH1 0x1 ADD SWAP2 POP POP PUSH2 0x196 JUMP JUMPDEST POP PUSH0 PUSH8 0xFFFFFFFFFFFFFFFF DUP2 GT ISZERO PUSH2 0x24B JUMPI PUSH2 0x24A PUSH2 0x797 JUMP JUMPDEST JUMPDEST PUSH1 0x40 MLOAD SWAP1 DUP1 DUP3 MSTORE DUP1 PUSH1 0x20 MUL PUSH1 0x20 ADD DUP3 ADD PUSH1 0x40 MSTORE DUP1 ISZERO PUSH2 0x279 JUMPI DUP2 PUSH1 0x20 ADD PUSH1 0x20 DUP3 MUL DUP1 CALLDATASIZE DUP4 CALLDATACOPY DUP1 DUP3 ADD SWAP2 POP POP SWAP1 POP JUMPDEST POP PUSH0 SWAP1 DUP1 MLOAD SWAP1 PUSH1 0x20 ADD SWAP1 PUSH2 0x28E SWAP3 SWAP2 SWAP1 PUSH2 0x591 JUMP JUMPDEST POP PUSH0 CALLER PUSH20 0xFFFFFFFFFFFFFFFFFFFFFFFFFFFFFFFFFFFFFFFF AND SELFBALANCE PUSH1 0x40 MLOAD PUSH2 0x2B4 SWAP1 PUSH2 0x7F1 JUMP JUMPDEST PUSH0 PUSH1 0x40 MLOAD DUP1 DUP4 SUB DUP2 DUP6 DUP8 GAS CALL SWAP3 POP POP POP RETURNDATASIZE DUP1 PUSH0 DUP2 EQ PUSH2 0x2EE JUMPI PUSH1 0x40 MLOAD SWAP2 POP PUSH1 0x1F NOT PUSH1 0x3F RETURNDATASIZE ADD AND DUP3 ADD PUSH1 0x40 MSTORE RETURNDATASIZE DUP3 MSTORE RETURNDATASIZE PUSH0 PUSH1 0x20 DUP5 ADD RETURNDATACOPY PUSH2 0x2F3 JUMP JUMPDEST PUSH1 0x60 SWAP2 POP JUMPDEST POP POP SWAP1 POP DUP1 PUSH2 0x337 JUMPI PUSH1 0x40 MLOAD PUSH32 0x8C379A000000000000000000000000000000000000000000000000000000000 DUP2 MSTORE PUSH1 0x4 ADD PUSH2 0x32E SWAP1 PUSH2 0x85F JUMP JUMPDEST PUSH1 0x40 MLOAD DUP1 SWAP2 SUB SWAP1 REVERT JUMPDEST POP JUMP JUMPDEST PUSH1 0x1 PUSH1 0x20 MSTORE DUP1 PUSH0 MSTORE PUSH1 0x40 PUSH0 KECCAK256 PUSH0 SWAP2 POP SWAP1 POP SLOAD DUP2 JUMP JUMPDEST PUSH8 0xDE0B6B3A7640000 PUSH2 0x361 CALLVALUE PUSH2 0x4B4 JUMP JUMPDEST LT ISZERO PUSH2 0x3A2 JUMPI PUSH1 0x40 MLOAD PUSH32 0x8C379A000000000000000000000000000000000000000000000000000000000 DUP2 MSTORE PUSH1 0x4 ADD PUSH2 0x399 SWAP1 PUSH2 0x8C7 JUMP JUMPDEST PUSH1 0x40 MLOAD DUP1 SWAP2 SUB SWAP1 REVERT JUMPDEST PUSH0 CALLER SWAP1 DUP1 PUSH1 0x1 DUP2 SLOAD ADD DUP1 DUP3 SSTORE DUP1 SWAP2 POP POP PUSH1 0x1 SWAP1 SUB SWAP1 PUSH0 MSTORE PUSH1 0x20 PUSH0 KECCAK256 ADD PUSH0 SWAP1 SWAP2 SWAP1 SWAP2 SWAP1 SWAP2 PUSH2 0x100 EXP DUP2 SLOAD DUP2 PUSH20 0xFFFFFFFFFFFFFFFFFFFFFFFFFFFFFFFFFFFFFFFF MUL NOT AND SWAP1 DUP4 PUSH20 0xFFFFFFFFFFFFFFFFFFFFFFFFFFFFFFFFFFFFFFFF AND MUL OR SWAP1 SSTORE POP CALLVALUE PUSH1 0x1 PUSH0 CALLER PUSH20 0xFFFFFFFFFFFFFFFFFFFFFFFFFFFFFFFFFFFFFFFF AND PUSH20 0xFFFFFFFFFFFFFFFFFFFFFFFFFFFFFFFFFFFFFFFF AND DUP2 MSTORE PUSH1 0x20 ADD SWAP1 DUP2 MSTORE PUSH1 0x20 ADD PUSH0 KECCAK256 PUSH0 DUP3 DUP3 SLOAD PUSH2 0x44D SWAP2 SWAP1 PUSH2 0x912 JUMP JUMPDEST SWAP3 POP POP DUP2 SWAP1 SSTORE POP JUMP JUMPDEST PUSH32 0x0 DUP2 JUMP JUMPDEST PUSH0 DUP2 DUP2 SLOAD DUP2 LT PUSH2 0x488 JUMPI PUSH0 DUP1 REVERT JUMPDEST SWAP1 PUSH0 MSTORE PUSH1 0x20 PUSH0 KECCAK256 ADD PUSH0 SWAP2 POP SLOAD SWAP1 PUSH2 0x100 EXP SWAP1 DIV PUSH20 0xFFFFFFFFFFFFFFFFFFFFFFFFFFFFFFFFFFFFFFFF AND DUP2 JUMP JUMPDEST PUSH0 DUP1 PUSH2 0x4BE PUSH2 0x4EC JUMP JUMPDEST SWAP1 POP PUSH0 PUSH8 0xDE0B6B3A7640000 DUP5 DUP4 PUSH2 0x4D6 SWAP2 SWAP1 PUSH2 0x945 JUMP JUMPDEST PUSH2 0x4E0 SWAP2 SWAP1 PUSH2 0x9B3 JUMP JUMPDEST SWAP1 POP DUP1 SWAP3 POP POP POP SWAP2 SWAP1 POP JUMP JUMPDEST PUSH0 DUP1 PUSH20 0x694AA1769357215DE4FAC081BF1F309ADC325306 SWAP1 POP PUSH0 DUP2 PUSH20 0xFFFFFFFFFFFFFFFFFFFFFFFFFFFFFFFFFFFFFFFF AND PUSH4 0xFEAF968C PUSH1 0x40 MLOAD DUP2 PUSH4 0xFFFFFFFF AND PUSH1 0xE0 SHL DUP2 MSTORE PUSH1 0x4 ADD PUSH1 0xA0 PUSH1 0x40 MLOAD DUP1 DUP4 SUB DUP2 DUP7 GAS STATICCALL ISZERO DUP1 ISZERO PUSH2 0x54F JUMPI RETURNDATASIZE PUSH0 DUP1 RETURNDATACOPY RETURNDATASIZE PUSH0 REVERT JUMPDEST POP POP POP POP PUSH1 0x40 MLOAD RETURNDATASIZE PUSH1 0x1F NOT PUSH1 0x1F DUP3 ADD AND DUP3 ADD DUP1 PUSH1 0x40 MSTORE POP DUP2 ADD SWAP1 PUSH2 0x573 SWAP2 SWAP1 PUSH2 0xA69 JUMP JUMPDEST POP POP POP SWAP2 POP POP PUSH5 0x2540BE400 DUP2 PUSH2 0x58A SWAP2 SWAP1 PUSH2 0xAE0 JUMP JUMPDEST SWAP3 POP POP POP SWAP1 JUMP JUMPDEST DUP3 DUP1 SLOAD DUP3 DUP3 SSTORE SWAP1 PUSH0 MSTORE PUSH1 0x20 PUSH0 KECCAK256 SWAP1 DUP2 ADD SWAP3 DUP3 ISZERO PUSH2 0x607 JUMPI SWAP2 PUSH1 0x20 MUL DUP3 ADD JUMPDEST DUP3 DUP2 GT ISZERO PUSH2 0x606 JUMPI DUP3 MLOAD DUP3 PUSH0 PUSH2 0x100 EXP DUP2 SLOAD DUP2 PUSH20 0xFFFFFFFFFFFFFFFFFFFFFFFFFFFFFFFFFFFFFFFF MUL NOT AND SWAP1 DUP4 PUSH20 0xFFFFFFFFFFFFFFFFFFFFFFFFFFFFFFFFFFFFFFFF AND MUL OR SWAP1 SSTORE POP SWAP2 PUSH1 0x20 ADD SWAP2 SWAP1 PUSH1 0x1 ADD SWAP1 PUSH2 0x5AF JUMP JUMPDEST JUMPDEST POP SWAP1 POP PUSH2 0x614 SWAP2 SWAP1 PUSH2 0x618 JUMP JUMPDEST POP SWAP1 JUMP JUMPDEST JUMPDEST DUP1 DUP3 GT ISZERO PUSH2 0x62F JUMPI PUSH0 DUP2 PUSH0 SWAP1 SSTORE POP PUSH1 0x1 ADD PUSH2 0x619 JUMP JUMPDEST POP SWAP1 JUMP JUMPDEST PUSH0 DUP1 REVERT JUMPDEST PUSH0 PUSH20 0xFFFFFFFFFFFFFFFFFFFFFFFFFFFFFFFFFFFFFFFF DUP3 AND SWAP1 POP SWAP2 SWAP1 POP JUMP JUMPDEST PUSH0 PUSH2 0x660 DUP3 PUSH2 0x637 JUMP JUMPDEST SWAP1 POP SWAP2 SWAP1 POP JUMP JUMPDEST PUSH2 0x670 DUP2 PUSH2 0x656 JUMP JUMPDEST DUP2 EQ PUSH2 0x67A JUMPI PUSH0 DUP1 REVERT JUMPDEST POP JUMP JUMPDEST PUSH0 DUP2 CALLDATALOAD SWAP1 POP PUSH2 0x68B DUP2 PUSH2 0x667 JUMP JUMPDEST SWAP3 SWAP2 POP POP JUMP JUMPDEST PUSH0 PUSH1 0x20 DUP3 DUP5 SUB SLT ISZERO PUSH2 0x6A6 JUMPI PUSH2 0x6A5 PUSH2 0x633 JUMP JUMPDEST JUMPDEST PUSH0 PUSH2 0x6B3 DUP5 DUP3 DUP6 ADD PUSH2 0x67D JUMP JUMPDEST SWAP2 POP POP SWAP3 SWAP2 POP POP JUMP JUMPDEST PUSH0 DUP2 SWAP1 POP SWAP2 SWAP1 POP JUMP JUMPDEST PUSH2 0x6CE DUP2 PUSH2 0x6BC JUMP JUMPDEST DUP3 MSTORE POP POP JUMP JUMPDEST PUSH0 PUSH1 0x20 DUP3 ADD SWAP1 POP PUSH2 0x6E7 PUSH0 DUP4 ADD DUP5 PUSH2 0x6C5 JUMP JUMPDEST SWAP3 SWAP2 POP POP JUMP JUMPDEST PUSH2 0x6F6 DUP2 PUSH2 0x656 JUMP JUMPDEST DUP3 MSTORE POP POP JUMP JUMPDEST PUSH0 PUSH1 0x20 DUP3 ADD SWAP1 POP PUSH2 0x70F PUSH0 DUP4 ADD DUP5 PUSH2 0x6ED JUMP JUMPDEST SWAP3 SWAP2 POP POP JUMP JUMPDEST PUSH2 0x71E DUP2 PUSH2 0x6BC JUMP JUMPDEST DUP2 EQ PUSH2 0x728 JUMPI PUSH0 DUP1 REVERT JUMPDEST POP JUMP JUMPDEST PUSH0 DUP2 CALLDATALOAD SWAP1 POP PUSH2 0x739 DUP2 PUSH2 0x715 JUMP JUMPDEST SWAP3 SWAP2 POP POP JUMP JUMPDEST PUSH0 PUSH1 0x20 DUP3 DUP5 SUB SLT ISZERO PUSH2 0x754 JUMPI PUSH2 0x753 PUSH2 0x633 JUMP JUMPDEST JUMPDEST PUSH0 PUSH2 0x761 DUP5 DUP3 DUP6 ADD PUSH2 0x72B JUMP JUMPDEST SWAP2 POP POP SWAP3 SWAP2 POP POP JUMP JUMPDEST PUSH32 0x4E487B7100000000000000000000000000000000000000000000000000000000 PUSH0 MSTORE PUSH1 0x32 PUSH1 0x4 MSTORE PUSH1 0x24 PUSH0 REVERT JUMPDEST PUSH32 0x4E487B7100000000000000000000000000000000000000000000000000000000 PUSH0 MSTORE PUSH1 0x41 PUSH1 0x4 MSTORE PUSH1 0x24 PUSH0 REVERT JUMPDEST PUSH0 DUP2 SWAP1 POP SWAP3 SWAP2 POP POP JUMP JUMPDEST POP JUMP JUMPDEST PUSH0 PUSH2 0x7DC PUSH0 DUP4 PUSH2 0x7C4 JUMP JUMPDEST SWAP2 POP PUSH2 0x7E7 DUP3 PUSH2 0x7CE JUMP JUMPDEST PUSH0 DUP3 ADD SWAP1 POP SWAP2 SWAP1 POP JUMP JUMPDEST PUSH0 PUSH2 0x7FB DUP3 PUSH2 0x7D1 JUMP JUMPDEST SWAP2 POP DUP2 SWAP1 POP SWAP2 SWAP1 POP JUMP JUMPDEST PUSH0 DUP3 DUP3 MSTORE PUSH1 0x20 DUP3 ADD SWAP1 POP SWAP3 SWAP2 POP POP JUMP JUMPDEST PUSH32 0x43616C6C206661696C6564000000000000000000000000000000000000000000 PUSH0 DUP3 ADD MSTORE POP JUMP JUMPDEST PUSH0 PUSH2 0x849 PUSH1 0xB DUP4 PUSH2 0x805 JUMP JUMPDEST SWAP2 POP PUSH2 0x854 DUP3 PUSH2 0x815 JUMP JUMPDEST PUSH1 0x20 DUP3 ADD SWAP1 POP SWAP2 SWAP1 POP JUMP JUMPDEST PUSH0 PUSH1 0x20 DUP3 ADD SWAP1 POP DUP2 DUP2 SUB PUSH0 DUP4 ADD MSTORE PUSH2 0x876 DUP2 PUSH2 0x83D JUMP JUMPDEST SWAP1 POP SWAP2 SWAP1 POP JUMP JUMPDEST PUSH32 0x4469646E27742073656E6420656E6F7567680000000000000000000000000000 PUSH0 DUP3 ADD MSTORE POP JUMP JUMPDEST PUSH0 PUSH2 0x8B1 PUSH1 0x12 DUP4 PUSH2 0x805 JUMP JUMPDEST SWAP2 POP PUSH2 0x8BC DUP3 PUSH2 0x87D JUMP JUMPDEST PUSH1 0x20 DUP3 ADD SWAP1 POP SWAP2 SWAP1 POP JUMP JUMPDEST PUSH0 PUSH1 0x20 DUP3 ADD SWAP1 POP DUP2 DUP2 SUB PUSH0 DUP4 ADD MSTORE PUSH2 0x8DE DUP2 PUSH2 0x8A5 JUMP JUMPDEST SWAP1 POP SWAP2 SWAP1 POP JUMP JUMPDEST PUSH32 0x4E487B7100000000000000000000000000000000000000000000000000000000 PUSH0 MSTORE PUSH1 0x11 PUSH1 0x4 MSTORE PUSH1 0x24 PUSH0 REVERT JUMPDEST PUSH0 PUSH2 0x91C DUP3 PUSH2 0x6BC JUMP JUMPDEST SWAP2 POP PUSH2 0x927 DUP4 PUSH2 0x6BC JUMP JUMPDEST SWAP3 POP DUP3 DUP3 ADD SWAP1 POP DUP1 DUP3 GT ISZERO PUSH2 0x93F JUMPI PUSH2 0x93E PUSH2 0x8E5 JUMP JUMPDEST JUMPDEST SWAP3 SWAP2 POP POP JUMP JUMPDEST PUSH0 PUSH2 0x94F DUP3 PUSH2 0x6BC JUMP JUMPDEST SWAP2 POP PUSH2 0x95A DUP4 PUSH2 0x6BC JUMP JUMPDEST SWAP3 POP DUP3 DUP3 MUL PUSH2 0x968 DUP2 PUSH2 0x6BC JUMP JUMPDEST SWAP2 POP DUP3 DUP3 DIV DUP5 EQ DUP4 ISZERO OR PUSH2 0x97F JUMPI PUSH2 0x97E PUSH2 0x8E5 JUMP JUMPDEST JUMPDEST POP SWAP3 SWAP2 POP POP JUMP JUMPDEST PUSH32 0x4E487B7100000000000000000000000000000000000000000000000000000000 PUSH0 MSTORE PUSH1 0x12 PUSH1 0x4 MSTORE PUSH1 0x24 PUSH0 REVERT JUMPDEST PUSH0 PUSH2 0x9BD DUP3 PUSH2 0x6BC JUMP JUMPDEST SWAP2 POP PUSH2 0x9C8 DUP4 PUSH2 0x6BC JUMP JUMPDEST SWAP3 POP DUP3 PUSH2 0x9D8 JUMPI PUSH2 0x9D7 PUSH2 0x986 JUMP JUMPDEST JUMPDEST DUP3 DUP3 DIV SWAP1 POP SWAP3 SWAP2 POP POP JUMP JUMPDEST PUSH0 PUSH10 0xFFFFFFFFFFFFFFFFFFFF DUP3 AND SWAP1 POP SWAP2 SWAP1 POP JUMP JUMPDEST PUSH2 0xA01 DUP2 PUSH2 0x9E3 JUMP JUMPDEST DUP2 EQ PUSH2 0xA0B JUMPI PUSH0 DUP1 REVERT JUMPDEST POP JUMP JUMPDEST PUSH0 DUP2 MLOAD SWAP1 POP PUSH2 0xA1C DUP2 PUSH2 0x9F8 JUMP JUMPDEST SWAP3 SWAP2 POP POP JUMP JUMPDEST PUSH0 DUP2 SWAP1 POP SWAP2 SWAP1 POP JUMP JUMPDEST PUSH2 0xA34 DUP2 PUSH2 0xA22 JUMP JUMPDEST DUP2 EQ PUSH2 0xA3E JUMPI PUSH0 DUP1 REVERT JUMPDEST POP JUMP JUMPDEST PUSH0 DUP2 MLOAD SWAP1 POP PUSH2 0xA4F DUP2 PUSH2 0xA2B JUMP JUMPDEST SWAP3 SWAP2 POP POP JUMP JUMPDEST PUSH0 DUP2 MLOAD SWAP1 POP PUSH2 0xA63 DUP2 PUSH2 0x715 JUMP JUMPDEST SWAP3 SWAP2 POP POP JUMP JUMPDEST PUSH0 DUP1 PUSH0 DUP1 PUSH0 PUSH1 0xA0 DUP7 DUP9 SUB SLT ISZERO PUSH2 0xA82 JUMPI PUSH2 0xA81 PUSH2 0x633 JUMP JUMPDEST JUMPDEST PUSH0 PUSH2 0xA8F DUP9 DUP3 DUP10 ADD PUSH2 0xA0E JUMP JUMPDEST SWAP6 POP POP PUSH1 0x20 PUSH2 0xAA0 DUP9 DUP3 DUP10 ADD PUSH2 0xA41 JUMP JUMPDEST SWAP5 POP POP PUSH1 0x40 PUSH2 0xAB1 DUP9 DUP3 DUP10 ADD PUSH2 0xA55 JUMP JUMPDEST SWAP4 POP POP PUSH1 0x60 PUSH2 0xAC2 DUP9 DUP3 DUP10 ADD PUSH2 0xA55 JUMP JUMPDEST SWAP3 POP POP PUSH1 0x80 PUSH2 0xAD3 DUP9 DUP3 DUP10 ADD PUSH2 0xA0E JUMP JUMPDEST SWAP2 POP POP SWAP3 SWAP6 POP SWAP3 SWAP6 SWAP1 SWAP4 POP JUMP JUMPDEST PUSH0 PUSH2 0xAEA DUP3 PUSH2 0xA22 JUMP JUMPDEST SWAP2 POP PUSH2 0xAF5 DUP4 PUSH2 0xA22 JUMP JUMPDEST SWAP3 POP DUP3 DUP3 MUL PUSH2 0xB03 DUP2 PUSH2 0xA22 JUMP JUMPDEST SWAP2 POP PUSH32 0x8000000000000000000000000000000000000000000000000000000000000000 DUP5 EQ PUSH0 DUP5 SLT AND ISZERO PUSH2 0xB3A JUMPI PUSH2 0xB39 PUSH2 0x8E5 JUMP JUMPDEST JUMPDEST DUP3 DUP3 SDIV DUP5 EQ DUP4 ISZERO OR PUSH2 0xB4F JUMPI PUSH2 0xB4E PUSH2 0x8E5 JUMP JUMPDEST JUMPDEST POP SWAP3 SWAP2 POP POP JUMP INVALID LOG2 PUSH5 0x6970667358 0x22 SLT KECCAK256 CALLVALUE JUMPDEST RETURNDATASIZE 0xC0 0xF7 0xC CREATE 0xB6 0x4F GAS 0xB0 0xC9 DIV 0xFB 0x4C 0x2F SWAP2 0xDE MUL 0xF 0xD2 CALLDATALOAD MSTORE8 0xB9 MLOAD 0xC1 DUP13 PUSH6 0xCBD3563B6473 PUSH16 0x6C634300081600330000000000000000 "
				},
				"gasEstimates": {
					"creation": {
						"codeDepositCost": "591200",
						"executionCost": "infinite",
						"totalCost": "infinite"
					},
					"external": {
						"addressToAmountFunded(address)": "2802",
						"fund()": "infinite",
						"funders(uint256)": "5009",
						"i_owner()": "infinite",
						"withdraw()": "infinite"
					}
				},
				"methodIdentifiers": {
					"addressToAmountFunded(address)": "3e47d6f3",
					"fund()": "b60d4288",
					"funders(uint256)": "dc0d3dff",
					"i_owner()": "dba6335f",
					"withdraw()": "3ccfd60b"
				}
			},
			"storageLayout": {
				"storage": [
					{
						"astId": 61,
						"contract": "contracts/FundMe.sol:FundMe",
						"label": "funders",
						"offset": 0,
						"slot": "0",
						"type": "t_array(t_address)dyn_storage"
					},
					{
						"astId": 65,
						"contract": "contracts/FundMe.sol:FundMe",
						"label": "addressToAmountFunded",
						"offset": 0,
						"slot": "1",
						"type": "t_mapping(t_address,t_uint256)"
					}
				],
				"types": {
					"t_address": {
						"encoding": "inplace",
						"label": "address",
						"numberOfBytes": "20"
					},
					"t_array(t_address)dyn_storage": {
						"base": "t_address",
						"encoding": "dynamic_array",
						"label": "address[]",
						"numberOfBytes": "32"
					},
					"t_mapping(t_address,t_uint256)": {
						"encoding": "mapping",
						"key": "t_address",
						"label": "mapping(address => uint256)",
						"numberOfBytes": "32",
						"value": "t_uint256"
					},
					"t_uint256": {
						"encoding": "inplace",
						"label": "uint256",
						"numberOfBytes": "32"
					}
				}
			},
			"userdoc": {
				"kind": "user",
				"methods": {},
				"version": 1
			}
		}
	}
}